:0400000007EF00F016
:0A0008004982F2ED1AF035EF1CF00A
:10080000004354524C2054656D706572617475726A
:1008100061004552524F2054656D70657261747568
:1008200072610025332E326600494E46004E414E1D
:0D08300000696E66006E616E006C6600006F
:10083E00000E0001976F000E966F72C0A8F073C085
:10084E00A9F074C0AAF075C0ABF0ABBF33EF04F0E3
:10085E0031EF04F049EF04F0000E976F010E966F22
:10086E00A8C016F0A9C017F0AAC018F0ABC019F0B6
:10087E005FEC1DF016C0A8F017C0A9F018C0AAF0C2
:10088E0019C0ABF0000E0001AF6F000EAE6F43C08B
:10089E009AF044C09BF096519711D8A459EF04F0EA
:1008AE005BEF04F062EF04F047A460EF04F062EF38
:1008BE0004F07CEF04F096519711D8A469EF04F080
:1008CE006BEF04F071EF04F0000E7D6F2B0E7C6F5A
:1008DE0075EF04F0000E7D6F2D0E7C6F7CC000F165
:1008EE00AE4BAF2B9A07D8A09B07A8C016F0A9C095
:1008FE0017F0AAC018F0ABC019F02DEC17F01604C3
:10090E001710D8A48DEF04F08FEF04F0E6EF04F08B
:10091E00BF0E0001776FFF0E786F7651796F7A6B8D
:10092E007751792778517A237A510AE11A0E795D37
:10093E00D8A0A4EF04F0A7EF04F0010EA8EF04F086
:10094E00000E7E6F7F6B7E517F11D8B4B1EF04F035
:10095E00B3EF04F0C1EF04F0000EAE25166E010EDB
:10096E00AF21176E290E186E080E196E07EC1CF0CB
:10097E00CDEF04F0000EAE25166E010EAF21176EF0
:10098E00310E186E080E196E07EC1CF00001FD0EEC
:10099E009A27FF0E9B2370C026F071C027F0000E21
:1009AE00286E010E296E9AC02AF09BC02BF04DECDA
:1009BE0019F026C070F027C071F04BEF0AF0A8C0F6
:1009CE0016F0A9C017F0AAC018F0ABC019F02DECA4
:1009DE0017F016501710D8A4F7EF04F0F9EF04F043
:1009EE0039EF05F0BF0E0001776FFF0E786F76516D
:1009FE00796F7A6B7751792778517A237A510AE198
:100A0E001A0E795DD8A00EEF05F011EF05F0010E6C
:100A1E0012EF05F0000E806F816B80518111D8B4FA
:100A2E001BEF05F01DEF05F02BEF05F0000EAE25C8
:100A3E00166E010EAF21176E2D0E186E080E196E62
:100A4E0007EC1CF0CDEF04F0000EAE25166E010E75
:100A5E00AF21176E350E186E080E196E07EC1CF0CE
:100A6E00CDEF04F0000E0001B06F000EB16F800EDE
:100A7E00B26F3F0EB36F000EAD6F000EAC6FA8C01D
:100A8E0016F0A9C017F0AAC018F0ABC019F0000EEE
:100A9E001A6E000E1B6E000E1C6E000E1D6E5FECAD
:100AAE001AF0D8B05DEF05F05FEF05F0E2EF05F05C
:100ABE007EEF05F0B0C016F0B1C017F0B2C018F05E
:100ACE00B3C019F0000E1A6E000E1B6E200E1C6EB7
:100ADE00410E1D6E61EC0FF016C0B0F017C0B1F0F4
:100AEE0018C0B2F019C0B3F00001AC4BAD2BA8C0CA
:100AFE002FF0A9C030F0AAC031F0ABC032F0000E1A
:100B0E001A6E000E1B6E200E1C6E410E1D6EB0C0B6
:100B1E0016F0B1C017F0B2C018F0B3C019F061EC06
:100B2E000FF016C033F017C034F018C035F019C0EE
:100B3E0036F028EC16F0D8B0A7EF05F0A9EF05F0C7
:100B4E0061EF05F0C9EF05F0B0C016F0B1C017F0B7
:100B5E00B2C018F0B3C019F0000E1A6E000E1B6E64
:100B6E00200E1C6E410E1D6E76EC11F016C0B0F00C
:100B7E0017C0B1F018C0B2F019C0B3F00001AC0745
:100B8E00D8A0AD07A8C02FF0A9C030F0AAC031F090
:100B9E00ABC032F0B0C033F0B1C034F0B2C035F0FB
:100BAE00B3C036F028EC16F0D8A0E0EF05F0E2EF77
:100BBE0005F0ABEF05F076C01CF01D6AD7EC1BF00C
:100BCE001C5000019D6F9DC09CF0670E9D19D8A40E
:100BDE00F3EF05F0F5EF05F01BEF06F0455046106C
:100BEE00D8A4FCEF05F0FEEF05F002EF06F0000EC4
:100BFE00466E010E456E46BE0FEF06F0465006E1FC
:100C0E004504D8B00DEF06F00FEF06F015EF06F025
:100C1E00000E996F060E986F24EF06F045C098F0FF
:100C2E0046C099F024EF06F046BE20EF06F022EF04
:100C3E0006F00FEF06F015EF06F0670E9D19D8A41B
:100C4E002BEF06F02DEF06F05CEF06F0ADAF3BEFAD
:100C5E0006F0FC0EAC5DFF0EAD59D8A039EF06F0D4
:100C6E003BEF06F05AEF06F0FF0E776FFF0E786F30
:100C7E0098C079F099C07AF07751792778517A2314
:100C8E00AC51795D7A51800A7B6FAD51800A7B59E8
:100C9E00D8A054EF06F056EF06F05AEF06F0660EA7
:100CAE009C6F5CEF06F0650E9C6F98C08EF099C03D
:100CBE008FF0670E9D19D8A467EF06F069EF06F066
:100CCE0079EF06F0660E9C19D8A470EF06F072EF5D
:100CDE0006F07BEF06F0ADBF79EF06F077EF06F08A
:100CEE007BEF06F08E4B8F2B660E9C19D8A482EFED
:100CFE0006F084EF06F0A4EF06F0ADBF8BEF06F022
:100D0E0089EF06F097EF06F0000EB06F000EB16F90
:100D1E00800EB26F3F0EB36F000EAD6F000EAC6F54
:100D2E00670E9D19D8B49EEF06F0A0EF06F0A4EF63
:100D3E0006F0AC518E27AD518F23000EA76F000E1B
:100D4E00A66FA8C09EF0A9C09FF0AAC0A0F0ABC02D
:100D5E00A1F0B0C090F0B1C091F0B2C092F0B3C0AB
:100D6E0093F035EF07F09EC016F09FC017F0A0C0AD
:100D7E0018F0A1C019F0B0C01AF0B1C01BF0B2C08B
:100D8E001CF0B3C01DF076EC11F016C02FF017C09A
:100D9E0030F018C031F019C032F043EC13F02FC010
:100DAE00A2F030C0A3F031C0A4F032C0A5F0A2C0B2
:100DBE0016F0A3C017F0A4C018F0A5C019F0A5EC4A
:100DCE0015F016C094F017C095F09EC02FF09FC07E
:100DDE0030F0A0C031F0A1C032F0B0C01AF0B1C0F6
:100DEE001BF0B2C01CF0B3C01DF0A2C016F0A3C021
:100DFE0017F0A4C018F0A5C019F061EC0FF016C0E2
:100E0E0033F017C034F018C035F019C036F0FEECD0
:100E1E001CF02FC09EF030C09FF031C0A0F032C049
:100E2E00A1F0B0C016F0B1C017F0B2C018F0B3C048
:100E3E0019F0000E1A6E000E1B6E200E1C6E410E67
:100E4E001D6E76EC11F016C0B0F017C0B1F018C0E0
:100E5E00B2F019C0B3F00001A64BA72B8E51A65DC0
:100E6E00A751800A776F8F51800A7759D8A042EF29
:100E7E0007F044EF07F0BAEF06F0B0C016F0B1C0BD
:100E8E0017F0B2C018F0B3C019F0000E1A6E000EB3
:100E9E001B6EA00E1C6E400E1D6E61EC0FF016C088
:100EAE00A2F017C0A3F018C0A4F019C0A5F09EC000
:100EBE002FF09FC030F0A0C031F0A1C032F0A2C020
:100ECE0033F0A3C034F0A4C035F0A5C036F028EC42
:100EDE0016F0D8B075EF07F077EF07F082EF07F056
:100EEE00000E0001A26F000EA36F000EA46F000E85
:100EFE00A56FABEF07F09EC016F09FC017F0A0C015
:100F0E0018F0A1C019F0A2C01AF0A3C01BF0A4C023
:100F1E001CF0A5C01DF05FEC1AF0D8A099EF07F0F9
:100F2E009BEF07F0ABEF07F0000194B1A1EF07F0D4
:100F3E00A3EF07F0ABEF07F0000EA26F000EA36F4A
:100F4E00000EA46F000EA56FA8C016F0A9C017F072
:100F5E00AAC018F0ABC019F0A2C01AF0A3C01BF0C3
:100F6E00A4C01CF0A5C01DF001EC0DF016C09EF043
:100F7E0017C09FF018C0A0F019C0A1F09EC02FF0AE
:100F8E009FC030F0A0C031F0A1C032F0000E1A6E3A
:100F9E00000E1B6E200E1C6E410E1D6E90C016F0C4
:100FAE0091C017F092C018F093C019F061EC0FF0D9
:100FBE0016C033F017C034F018C035F019C036F033
:100FCE0028EC16F0D8A0EEEF07F0F0EF07F019EFCF
:100FDE0008F00001AC4BAD2B90C016F091C017F08D
:100FEE0092C018F093C019F0000E1A6E000E1B6E10
:100FFE00200E1C6E410E1D6E61EC0FF016C090F0AF
:10100E0017C091F018C092F019C093F0660E00014F
:10101E009C19D8A415EF08F017EF08F019EF08F097
:10102E008E4B8F2B90C0B0F091C0B1F092C0B2F049
:10103E0093C0B3F0650E00019C19D8B429EF08F0E7
:10104E002BEF08F031EF08F0ACC08CF0ADC08DF096
:10105E0035EF08F0000E8D6F000E8C6F000E8B6F4B
:10106E00000E8A6F000E896F000E886F000EA76F3C
:10107E00000EA66F31EF09F09EC016F09FC017F05C
:10108E00A0C018F0A1C019F0B0C01AF0B1C01BF08A
:10109E00B2C01CF0B3C01DF076EC11F016C02FF0EC
:1010AE0017C030F018C031F019C032F043EC13F015
:1010BE002FC0A2F030C0A3F031C0A4F032C0A5F012
:1010CE00A2C016F0A3C017F0A4C018F0A5C019F066
:1010DE00A5EC15F016C094F017C095F047B87AEF4E
:1010EE0008F07CEF08F09AEF08F00001945195118A
:1010FE00D8A484EF08F086EF08F09AEF08F0670E98
:10110E009D19D8A48DEF08F08FEF08F09AEF08F034
:10111E008DBF96EF08F094EF08F09AEF08F0884B29
:10112E00892BE5EF08F000018A518B11D8A4A2EFAC
:10113E0008F0A4EF08F0CEEF08F08DBFABEF08F08B
:10114E00A9EF08F0CEEF08F0000EAE25D96E010E15
:10115E00AF21DA6E2E0EDF6EAE4BAF2B9A07D8A0F4
:10116E009B07000E8B6F010E8A6FCEEF08F0000EFC
:10117E00AE25D96E010EAF21DA6E300EDF6EAE4B9C
:10118E00AF2B9A07D8A09B078807D8A0890788514C
:10119E008911D8A4D5EF08F0D7EF08F0BEEF08F00C
:1011AE00000EAE25D96E010EAF21DA6E9451300FBE
:1011BE00DF6EAE4BAF2B9A07D8A09B079EC02FF0C9
:1011CE009FC030F0A0C031F0A1C032F0B0C01AF014
:1011DE00B1C01BF0B2C01CF0B3C01DF0A2C016F01F
:1011EE00A3C017F0A4C018F0A5C019F061EC0FF061
:1011FE0016C033F017C034F018C035F019C036F0F1
:10120E00FEEC1CF02FC09EF030C09FF031C0A0F05D
:10121E0032C0A1F0B0C016F0B1C017F0B2C018F0D5
:10122E00B3C019F0000E1A6E000E1B6E200E1C6E4F
:10123E00410E1D6E76EC11F016C0B0F017C0B1F075
:10124E0018C0B2F019C0B3F000018C07D8A08D07FA
:10125E00A64BA72B8E51A65DA751800A776F8F5193
:10126E00800A7759D8B03EEF09F040EF09F04EEF03
:10127E0009F0AFBF4CEF09F0AF5109E14B0EAE5D77
:10128E00D8A04CEF09F04EEF09F043EF08F08A5169
:10129E008B11D8A455EF09F057EF09F068EF09F05C
:1012AE0047A85CEF09F05EEF09F068EF09F0000E59
:1012BE00AE25D96E010EAF21DA6E2E0EDF6EAE4B5D
:1012CE00AF2B000EAE25D96E010EAF21DA6E000ED9
:1012DE00DF6E650E9C19D8A477EF09F079EF09F04F
:1012EE00D2EF04F0000EA76F4F0EA66F000EA625CC
:1012FE00D96E010EA721DA6E000EDF6E000E976F0B
:10130E00000E966FADBF90EF09F08EEF09F098EFDB
:10131E0009F0000E976F010E966FAC6DAD1FD8B031
:10132E00AD2B000E996F020E986FC9EF09F0A6074C
:10133E00D8A0A707000EA625D96E010EA721DA6E3A
:10134E00ACC016F0ADC017F0000E196E0A0E186E76
:10135E0007EC1AF01650300FDF6EACC016F0ADC0B1
:10136E0017F0000E196E0A0E186EEBEC18F016C080
:10137E00ACF017C0ADF000019807D8A099079A07F6
:10138E00D8A09B07AC51AD11D8A4D0EF09F0D2EF85
:10139E0009F09EEF09F099BFDFEF09F0995106E1D0
:1013AE009805D8B0DDEF09F0DFEF09F09EEF09F0F8
:1013BE00A607D8A0A70796519711D8A4E9EF09F070
:1013CE00EBEF09F0F1EF09F0000E836F2B0E826F39
:1013DE00F5EF09F0000E836F2D0E826F000EA6251D
:1013EE00D96E010EA721DA6E82C0DFFF9A07D8A050
:1013FE009B07A607D8A0A707BF0E776FFF0E786FC3
:10140E007651796F7A6B7751792778517A237A51A1
:10141E000AE11A0E795DD8A017EF0AF01AEF0AF05A
:10142E00010E1BEF0AF0000E866F876B8651871137
:10143E00D8A424EF0AF026EF0AF02CEF0AF0000EE3
:10144E00856F650E846F30EF0AF0000E856F450EC6
:10145E00846F000EA625D96E010EA721DA6E84C008
:10146E00DFFF9A07D8A09B07000EAE25166E010E61
:10147E00AF21176E000EA625186E010EA721196E4C
:10148E0007EC1CF0D2EF04F01200B6C0D9FFB7C0C3
:10149E00DAFFDECFF6FFDDCFF7FF0800F550250AA5
:1014AE00D8A45CEF0AF05EEF0AF0E5EF0CF0B6C0E0
:1014BE00D9FFB7C0DAFFDE2A000EDD22000E446E21
:1014CE00000E436E43C047F044C048F0456846687E
:1014DE00B6C0D9FFB7C0DAFFDECFF6FFDDCFF7FF1C
:1014EE000800F5502A0AD8A47FEF0AF081EF0AF01F
:1014FE00AAEF0AF0B6C0D9FFB7C0DAFFDE2A000E97
:10150E00DD22B8C0D9FFB9C0DAFFDFCFBAF0020EC4
:10151E00DE26DFCFBBF0000EDD22BAC0D9FFBBC086
:10152E00DAFFDECF43F0DDCF44F044BEA3EF0AF086
:10153E00A1EF0AF0EEEF0AF04780436C441ED8B0DC
:10154E00442AEEEF0AF0B6C0D9FFB7C0DAFFDECFFD
:10155E001DF0DDCF1EF04EEC14F01DC043F01EC08A
:10156E0044F0C1EF0AF0B6C0D9FFB7C0DAFFDE2AE9
:10157E00000EDD22D00E0001BA6FFF0EBB6FB6C09B
:10158E00D9FFB7C0DAFFDECFF6FFDDCFF7FF0800D9
:10159E00F550BC6FBD6BBA51BC27BB51BD23BD51BD
:1015AE000AE10A0EBC5DD8A0DFEF0AF0E2EF0AF006
:1015BE00010EE3EF0AF0000EBE6FBF6BBE51BF11FE
:1015CE00D8A4ECEF0AF0EEEF0AF0BAEF0AF0B6C0CC
:1015DE00D9FFB7C0DAFFDECFF6FFDDCFF7FF080089
:1015EE00F5502E0AD8A4FEEF0AF000EF0BF07EEFB6
:1015FE000BF0000E466E000E456EB6C0D9FFB7C09A
:10160E00DAFFDE2A000EDD22B6C0D9FFB7C0DAFF40
:10161E00DECFF6FFDDCFF7FF0800F5502A0AD8A47B
:10162E001BEF0BF01DEF0BF03AEF0BF0B6C0D9FF2E
:10163E00B7C0DAFFDE2A000EDD22B8C0D9FFB9C06E
:10164E00DAFFDFCFBAF0020EDE26DFCFBBF0000EE0
:10165E00DD22BAC0D9FFBBC0DAFFDECF45F0DDCF49
:10166E0046F07EEF0BF0B6C0D9FFB7C0DAFFDECF83
:10167E001DF0DDCF1EF04EEC14F01DC045F01EC067
:10168E0046F051EF0BF0B6C0D9FFB7C0DAFFDE2A35
:10169E00000EDD22D00E0001BA6FFF0EBB6FB6C07A
:1016AE00D9FFB7C0DAFFDECFF6FFDDCFF7FF0800B8
:1016BE00F550BC6FBD6BBA51BC27BB51BD23BD519C
:1016CE000AE10A0EBC5DD8A06FEF0BF072EF0BF0C3
:1016DE00010E73EF0BF0000EC06FC16BC051C11144
:1016EE00D8A47CEF0BF07EEF0BF04AEF0BF0B6C0F8
:1016FE00D9FFB7C0DAFFDECFF6FFDDCFF7FF080068
:10170E00F5501C6E1D6AD7EC1BF01C500001C46F07
:10171E00C451D8B495EF0BF097EF0BF0D1EF0BF05F
:10172E00B6C0D9FFB7C0DAFFDECFBAF0DDCFBBF05F
:10173E00010EBA27000EBB23BAC0F6FFBBC0F7FFDF
:10174E000800F5501C6E1D6AD7EC1BF01C500001F2
:10175E00C56FC551D8B4B6EF0BF0B8EF0BF0D1EFA3
:10176E000BF0B6C0D9FFB7C0DAFFDECFBAF0DDCFCF
:10177E00BBF0020EBA27000EBB23BAC0F6FFBBC0E9
:10178E00F7FF0800F5501C6E1D6AD7EC1BF01C50BD
:10179E000001C66F660EC419D8A4D8EF0BF0DAEFAD
:1017AE000BF01AEF0CF0B6C0D9FFB7C0DAFFDECFE0
:1017BE00F6FFDDCFF7FF0800F5CFCBF0B6C0D9FFAF
:1017CE00B7C0DAFFDE2A000EDD22B8C0D9FFB9C0DD
:1017DE00DAFFDFCFBAF0040EDE26DFCFBBF0000E4D
:1017EE00DD22BAC0D9FFBBC0DAFFDECFC7F0DECF35
:1017FE00C8F0DECFC9F0DECFCAF0B4C070F0B5C00D
:10180E0071F0C7C072F0C8C073F0C9C074F0CAC01E
:10181E0075F0CBC076F01FEC04F070C0B4F071C060
:10182E00B5F000EF0DF0C40E166E000E176E390EE9
:10183E00186E080E196E000E1B6E020E1A6E1BEC41
:10184E0018F016501710D8A42FEF0CF031EF0CF043
:10185E00ADEF0CF0B6C0D9FFB7C0DAFFDECFBAF0ED
:10186E00DDCFBBF0010E0001BA27000EBB23BAC0BC
:10187E00F6FFBBC0F7FF0800F5CFCBF0BF0EBA6F77
:10188E00FF0EBB6FB6C0D9FFB7C0DAFFDECFF6FFD3
:10189E00DDCFF7FF0800F550BC6FBD6BBA51BC270A
:1018AE00BB51BD23BD510AE11A0EBC5DD8A062EF3B
:1018BE000CF065EF0CF0010E66EF0CF0000EC26F2F
:1018CE00C36BC251C311D8B46FEF0CF071EF0CF0B3
:1018DE008BEF0CF0B8C0D9FFB9C0DAFFDFCFBAF08A
:1018EE00040EDE26DFCFBBF0000EDD22BAC0D9FF1C
:1018FE00BBC0DAFFDECFC7F0DECFC8F0DECFC9F057
:10190E00DECFCAF0A3EF0CF0B8C0D9FFB9C0DAFF32
:10191E00DFCFBAF0040EDE26DFCFBBF0000EDD22E5
:10192E00BAC0D9FFBBC0DAFFDECFC7F0DECFC8F03A
:10193E00DECFC9F0DECFCAF0020EB6C0D9FFB7C0F7
:10194E00DAFFDE26000EDD2204EF0CF0B6C0D9FF62
:10195E00B7C0DAFFDECFF6FFDDCFF7FF0800F55098
:10196E00250AD8A4BDEF0CF0BFEF0CF0D7EF0CF0AA
:10197E00B6C0D9FFB7C0DAFFDE2A000EDD22000E98
:10198E00176E250E166EB4C018F0B5C019F086ECA1
:10199E0018F0000E0001B56F010EB46F00EF0DF0E0
:1019AE00B6C0D9FFB7C0DAFFDE2A000EDD22000E68
:1019BE000001B56F000EB46F00EF0DF0B6C0D9FF89
:1019CE00B7C0DAFFDECFF6FFDDCFF7FF0800F55028
:1019DE00166E176AB4C018F0B5C019F086EC18F080
:1019EE00B6C0D9FFB7C0DAFFDE2A000EDD22D0EF77
:1019FE000CF012001950800B226E19501924246E0F
:101A0E0018AE0CEF0DF00EEF0DF00FEF0DF0248071
:101A1E002450D8B415EF0DF017EF0DF02CEF0DF09C
:101A2E002428D8A41DEF0DF01FEF0DF027EF0DF0B9
:101A3E00000E166E000E176E000E186E000E196E4A
:101A4E00188E000E196E34EF0DF0000E166E000E8D
:101A5E00176E000E186E000E196E1D50800B236E41
:101A6E0022502318D8B43EEF0DF040EF0DF041EFA9
:101A7E000DF0228C1D501D24236E1CAE49EF0DF06F
:101A8E004BEF0DF04CEF0DF023802350D8B452EFF6
:101A9E000DF054EF0DF069EF0DF02328D8A45AEF96
:101AAE000DF05CEF0DF064EF0DF0000E1A6E000EEF
:101ABE001B6E000E1C6E000E1D6E1C8E000E1D6E1B
:101ACE0071EF0DF0000E1A6E000E1B6E000E1C6EE6
:101ADE00000E1D6E2450235CD8B078EF0DF07AEF17
:101AEE000DF0A1EF0DF022AC7FEF0DF081EF0DF0B8
:101AFE0083EF0DF0800E221A24C025F023C024F0AF
:101B0E0025C023F016C025F01AC016F025C01AF015
:101B1E0017C025F01BC017F025C01BF018C025F00C
:101B2E001CC018F025C01CF019C025F01DC019F0FE
:101B3E0025C01DF0000E256E245023C01EF01F6A16
:101B4E001E5E000E1F5A1FBEB6EF0DF01F5009E1AC
:101B5E001A0E1E5CD8A0B6EF0DF0B8EF0DF0EFEF39
:101B6E000DF01650171018101910D8A4C1EF0DF063
:101B7E00C4EF0DF0010EC5EF0DF0000E256E000E38
:101B8E00166E000E176E000E186E000E196E23C024
:101B9E0024F0F8EF0DF025A0D7EF0DF0D9EF0DF0F2
:101BAE00DFEF0DF0D89025300109256EE1EF0DF035
:101BBE00D890253216A0E6EF0DF0E8EF0DF0E9EF24
:101BCE000DF0258E19341932183217321632242A96
:101BDE002350245CD8A0F6EF0DF0F8EF0DF0D2EF05
:101BEE000DF022BCFDEF0DF0FFEF0DF03FEF0EF00C
:101BFE002450D8A405EF0EF007EF0EF011EF0EF003
:101C0E00000E166E000E176E000E186E000E196E78
:101C1E0060EF0FF01A5016261B5017221C50182278
:101C2E001D50192219A01EEF0EF020EF0EF0CCEF72
:101C3E000EF025A025EF0EF027EF0EF02DEF0EF093
:101C4E00D89025300109256E2FEF0EF0D890253251
:101C5E0016A034EF0EF036EF0EF037EF0EF0258EA5
:101C6E0019341932183217321632242ACCEF0EF0EC
:101C7E001A50165C1B5017581C5018581950800AD1
:101C8E001E6E1D50800A1E58D8B050EF0EF052EF47
:101C9E000EF07DEF0EF016501A5C1E6E17501B588C
:101CAE001F6E18501C58206E19501D58216EFF0EB5
:101CBE001E24166EFF0E1F20176EFF0E2020186EAC
:101CCE00FF0E2120196E800E221A256C2550D8A4E5
:101CDE0073EF0EF075EF0EF085EF0EF0010E162677
:101CEE00000E17221822192285EF0EF01A50165EDA
:101CFE001B50175A1C50185A1D50195A16501710AF
:101D0E0018101910D8A48EEF0EF090EF0EF0C5EF4C
:101D1E000EF02550D8A496EF0EF098EF0EF0C5EF0A
:101D2E000EF0000E166E000E176E000E186E000EE0
:101D3E00196E60EF0FF0D890163617361836193622
:101D4E0025AEACEF0EF0AEEF0EF0AFEF0EF016804C
:101D5E0025A0B4EF0EF0B6EF0EF0BAEF0EF0D8806D
:101D6E002536BCEF0EF0D89025362450D8B4C2EFED
:101D7E000EF0C4EF0EF0C5EF0EF0240618AECAEF4B
:101D8E000EF0CCEF0EF0A2EF0EF0000E236E25AE8D
:101D9E00D3EF0EF0D5EF0EF0EDEF0EF025C01EF0E6
:101DAE007F0E1E16D8B4DEEF0EF0E0EF0EF0E4EF6D
:101DBE000EF0010E236EEDEF0EF016A0E9EF0EF011
:101DCE00EBEF0EF0EDEF0EF0E0EF0EF02350D8B487
:101DDE00F3EF0EF0F5EF0EF020EF0FF0010E1626DA
:101DEE00000E17221822192219A000EF0FF002EF91
:101DFE000FF020EF0FF016C01EF017C01FF018C026
:101E0E0020F019C021F02134213220321F321E322F
:101E1E001EC016F01FC017F020C018F021C019F018
:101E2E002428D8B41DEF0FF01FEF0FF020EF0FF0A6
:101E3E00242A2428D8B426EF0FF028EF0FF030EF25
:101E4E000FF02450D8A42EEF0FF030EF0FF042EF2A
:101E5E000FF0000E166E000E176E000E186E000EAE
:101E6E00196E2450D8A43EEF0FF040EF0FF042EF62
:101E7E000FF0000E226E24A047EF0FF049EF0FF087
:101E8E004CEF0FF0188E4DEF0FF0189ED8902430B7
:101E9E00196E22AE55EF0FF057EF0FF058EF0FF00F
:101EAE00198E16C016F017C017F018C018F019C00A
:101EBE0019F012001950800B226E19501924286E39
:101ECE0018AE6CEF0FF06EEF0FF06FEF0FF0288083
:101EDE002850D8B475EF0FF077EF0FF08AEF0FF0B0
:101EEE002828D8A47DEF0FF07FEF0FF087EF0FF0CB
:101EFE00000E166E000E176E000E186E000E196E86
:101F0E00188E92EF0FF0000E166E000E176E000E6A
:101F1E00186E000E196E1D50800B221A1D501D24B6
:101F2E00276E1CAE9DEF0FF09FEF0FF0A0EF0FF09E
:101F3E0027802750D8B4A6EF0FF0A8EF0FF0BBEF15
:101F4E000FF02728D8A4AEEF0FF0B0EF0FF0B8EFD8
:101F5E000FF0000E1A6E000E1B6E000E1C6E000EA1
:101F6E001D6E1C8EC3EF0FF0000E1A6E000E1B6E50
:101F7E00000E1C6E000E1D6E2750D8B4C9EF0FF068
:101F8E00CBEF0FF0D3EF0FF02850D8A4D1EF0FF016
:101F9E00D3EF0FF0DDEF0FF0000E166E000E176E82
:101FAE00000E186E000E196E75EF11F01C50160211
:101FBE00F3CF2DF0F4CF2EF02D50236E246A256A28
:101FCE00266A2E50296E2A6A2B6A2C6A1B5017021B
:101FDE00F3CF2DF0F4CF2EF02D502326000E242219
:101FEE00252226222E502926000E2A222B222C2292
:101FFE001A501802F3CF2DF0F4CF2EF02D502326C9
:10200E00000E2422252226222E502926000E2A22B8
:10201E002B222C2225C026F024C025F023C024F02C
:10202E00236A1A501702F3CF2DF0F4CF2EF02D5055
:10203E0023262E502422000E2522000E26221B506F
:10204E001602F3CF2DF0F4CF2EF02D5023262E5066
:10205E002422000E2522000E262225C026F024C0A2
:10206E0025F023C024F0236A1A501602F3CF2DF068
:10207E00F4CF2EF02D5023262E502422000E252292
:10208E00000E26221C501702F3CF2DF0F4CF2EF0A7
:10209E002D5029262E502A22000E2B22000E2C22E5
:1020AE001B501802F3CF2DF0F4CF2EF02D50292611
:1020BE002E502A22000E2B22000E2C221C5018020B
:1020CE00F3CF2DF0F4CF2EF02D501E6E2E501F6E2E
:1020DE00206A216A20C021F01FC020F01EC01FF010
:1020EE001E6A1E5029261F502A2220502B222150B4
:1020FE002C2223C01EF024C01FF025C020F026C0C5
:10210E0021F0190E90EF10F0D890213220321F32AC
:10211E001E32E82E8BEF10F01E5029261F502A2259
:10212E0020502B2221502C2225C026F024C025F031
:10213E0023C024F0236A275028C01EF01F6A1E26D3
:10214E00000E1F22820E1E242D6EFF0E1F202E6EDD
:10215E00C6EF10F0D89029362A362B362C3626AEFE
:10216E00BBEF10F0BDEF10F0BEEF10F02980D8904D
:10217E0023362436253626362D06D8A02E062BAE2F
:10218E00CBEF10F0CDEF10F0B1EF10F0000E276E88
:10219E0026AED4EF10F0D6EF10F0FAEF10F0FF0EDF
:1021AE0023141E6EFF0E24141F6EFF0E2514206EB8
:1021BE007F0E2614216E1E501F1020102110D8B431
:1021CE00EBEF10F0EDEF10F0F1EF10F0010E276EC7
:1021DE00FAEF10F029A0F6EF10F0F8EF10F0FAEF8A
:1021EE0010F0EDEF10F02750D8B400EF11F002EF21
:1021FE0011F026EF11F0010E2926000E2A222B22B5
:10220E002C222CA00DEF11F00FEF11F026EF11F094
:10221E0029C01EF02AC01FF02BC020F02CC021F0C8
:10222E002134213220321F321E321EC029F01FC02F
:10223E002AF020C02BF021C02CF02D4A2E2A2EBEC3
:10224E0031EF11F02E5008E12D28D8A031EF11F00A
:10225E0033EF11F03DEF11F0000E296E000E2A6ED5
:10226E00800E2B6E7F0E2C6E6BEF11F02EBE4AEF92
:10227E0011F02E5006E12D04D8B048EF11F04AEFC0
:10228E0011F056EF11F0000E296E000E2A6E000EA0
:10229E002B6E000E2C6E000E226E6BEF11F02DC009
:1022AE0028F0FF0E2916FF0E2A167F0E2B16000E93
:1022BE002C1628A065EF11F067EF11F068EF11F002
:1022CE002B8ED89028302C6E22502C1229C016F04E
:1022DE002AC017F02BC018F02CC019F0120019509C
:1022EE00800B266E195019242D6E18AE81EF11F049
:1022FE0083EF11F084EF11F02D802D50D8B48AEFBA
:10230E0011F08CEF11F0A1EF11F02D28D8A492EF5F
:10231E0011F094EF11F09CEF11F0000E166E000EFE
:10232E00176E000E186E000E196E188E000E196EB6
:10233E00A9EF11F0000E166E000E176E000E186E3D
:10234E00000E196E1D50800B261A1D501D242E6E68
:10235E001CAEB4EF11F0B6EF11F0B7EF11F02E8006
:10236E002E50D8B4BDEF11F0BFEF11F0D4EF11F035
:10237E002E28D8A4C5EF11F0C7EF11F0CFEF11F052
:10238E00000E1A6E000E1B6E000E1C6E000E1D6EE1
:10239E001C8E000E1D6EDCEF11F0000E1A6E000E7C
:1023AE001B6E000E1C6E000E1D6E1A501B101C10A4
:1023BE001D10D8A4E5EF11F0E7EF11F0FFEF11F0CB
:1023CE00000E166E000E176E000E186E000E196EB1
:1023DE00800E18127F0E19122650191216C016F002
:1023EE0017C017F018C018F019C019F042EF13F00B
:1023FE002D50D8A405EF12F007EF12F011EF12F0E6
:10240E00000E166E000E176E000E186E000E196E70
:10241E0042EF13F02E502DC01EF01F6A1E5E000EEE
:10242E001F5A7F0E1E24276E000E1F20286E16C008
:10243E0022F017C023F018C024F019C025F0000EAA
:10244E00166E000E176E000E186E000E196E000E30
:10245E00296E000E2A6E000E2B6E000E2C6E000ED4
:10246E002E6E72EF12F02E50D8B440EF12F042EFF3
:10247E0012F059EF12F0D890223623362436253634
:10248E00D89016361736183619362CAE51EF12F084
:10249E0053EF12F054EF12F01680D89029362A36E8
:1024AE002B362C361A50225C1B5023581C502458A5
:1024BE001D502558D8A066EF12F068EF12F071EF9C
:1024CE0012F02C8C1A50225E1B50235A1C50245A88
:1024DE001D50255A2E2A190E2E6478EF12F07AEF1F
:1024EE0012F03AEF12F02250231024102510D8B417
:1024FE0083EF12F085EF12F09DEF12F029809DEF21
:10250E0012F0D89016361736183619362CAE92EFC2
:10251E0012F094EF12F095EF12F01680D890293643
:10252E002A362B362C362706D8A0280618AEA2EF50
:10253E0012F0A4EF12F088EF12F0000E2E6E2CAEF9
:10254E00ABEF12F0ADEF12F0D1EF12F0FF0E291437
:10255E001E6EFF0E2A141F6EFF0E2B14206E7F0EA2
:10256E002C14216E1E501F1020102110D8B4C2EF53
:10257E0012F0C4EF12F0C8EF12F0010E2E6ED1EF72
:10258E0012F016A0CDEF12F0CFEF12F0D1EF12F045
:10259E00C4EF12F02E50D8B4D7EF12F0D9EF12F0DC
:1025AE00FDEF12F0010E1626000E17221822192228
:1025BE0019A0E4EF12F0E6EF12F0FDEF12F016C0E4
:1025CE001EF017C01FF018C020F019C021F02134E2
:1025DE00213220321F321E321EC016F01FC017F0DD
:1025EE0020C018F021C019F0274A282A28BE08EF6B
:1025FE0013F0285008E12728D8A008EF13F00AEFAF
:10260E0013F015EF13F0000E286E2768000E166EED
:10261E00000E176E000E186E000E196E28BE22EFF9
:10262E0013F0285006E12704D8B020EF13F022EF64
:10263E0013F030EF13F0000E286E000E276E000E12
:10264E00166E000E176E000E186E000E196E000E2E
:10265E00266E27C02DF02DA037EF13F039EF13F0B3
:10266E003CEF13F0188E3DEF13F0189ED8902D30DE
:10267E00196EF3EF11F01200E6C06CF0E7C06DF0CA
:10268E00E8C06EF0E9C06FF02FC06CF030C06DF096
:10269E0031C06EF032C06FF0810E0001606FFF0E20
:1026AE00616F6CC062F06DC063F06EC064F06FC09D
:1026BE0065F0180E68EF13F0D8906533643363330A
:1026CE006233E82E63EF13F0625160256A6F000EDD
:1026DE0061216B6F6BBF7DEF13F06B5109E1170E2C
:1026EE006A5DD8A07DEF13F07FEF13F089EF13F042
:1026FE002FC02FF030C030F031C031F032C032F088
:10270E004DEF14F06BBF8EEF13F090EF13F001EF5F
:10271E0014F06AC060F0FF0E616FFF0E626F7F0EE5
:10272E00636F000E646F60679FEF13F0A7EF13F0F7
:10273E0064356433633362336133602F9AEF13F081
:10274E0061C066F062C067F063C068F064C069F093
:10275E00000166516C15606F67516D15616F6851A0
:10276E006E15626F69516F15636F60516111621161
:10277E006311D8A4C5EF13F0C7EF13F0C9EF13F030
:10278E007FEF13F06CC060F06DC061F06EC062F050
:10279E006FC063F0200ED9EF13F0D890633362331D
:1027AE0061336033E82ED4EF13F060516111621182
:1027BE006311D8B4E5EF13F0E7EF13F0EFEF13F07A
:1027CE0066516C2767516D2368516E2369516F23D3
:1027DE00661D606F671D616F681D626F691D636F97
:1027EE0060516C1761516D1762516E1763516F17FF
:1027FE0045EF14F06CC060F06DC061F06EC062F019
:10280E006FC063F0200E11EF14F0D8906333623373
:10281E0061336033E82E0CEF14F0605161116211D8
:10282E006311D8A41DEF14F01FEF14F029EF14F06C
:10283E00000E6C6F000E6D6F000E6E6F000E6F6FE0
:10284E0045EF14F0D8906C35606F6D35616F6E3555
:10285E00626F6F35636F6051611162116311D8B48D
:10286E003BEF14F03DEF14F045EF14F0000E6C6FDB
:10287E00000E6D6F800E6E6FBF0E6F6F6CC02FF0FF
:10288E006DC030F06EC031F06FC032F01200000E2D
:10289E002B6E000E2A6E000E246E000E236E5AEF63
:1028AE0014F01D4A1E2A010E296E1DC0F6FF1EC011
:1028BE00F7FF0800F550200AD8B468EF14F06AEF5D
:1028CE0014F087EF14F0F70E1F6EFF0E206E1DC072
:1028DE00F6FF1EC0F7FF0800F550216E226A1F504A
:1028EE00212620502222225009E1050E215CD8A07B
:1028FE0083EF14F085EF14F087EF14F0000E296EBD
:10290E0029C025F0266A25502610D8A491EF14F080
:10291E0093EF14F058EF14F09DEF14F0000E246EA8
:10292E00010E236E1D4A1E2AD2EF14F01DC0F6FFB3
:10293E001EC0F7FF0800F5501F6E206A2050000AD7
:10294E00D8B4ACEF14F0D2EF14F01F502B0AD8B459
:10295E0099EF14F0060AD8B495EF14F0D2EF14F0F4
:10296E002AC016F02BC017F0000E196E0A0E186E44
:10297E0097EC1DF01DC0F6FF1EC0F7FF0800F550C6
:10298E00165E000E175A300E16242A6E000E1720F1
:10299E002B6E99EF14F0D00E1F6EFF0E206E1DC021
:1029AE00F6FF1EC0F7FF0800F550216E226A1F5079
:1029BE0021262050222222500AE10A0E215CD8A0A4
:1029CE00EBEF14F0EEEF14F0010EEFEF14F0000E3B
:1029DE00276E286A27502810D8A4F8EF14F0FAEFC3
:1029EE0014F0B7EF14F023502410D8A401EF15F013
:1029FE0003EF15F011EF15F02AC01FF02BC020F0D9
:102A0E001F1E201E1F4A202A1FC01DF020C01EF0B0
:102A1E0015EF15F02AC01DF02BC01EF01200809885
:102A2E00F28EF28AC70ED56E050ED66E000E956E1C
:102A3E00000E966E0F0EC16EF086F090F18A000EAB
:102A4E00176E3C0E166EAAEC1DF0000E176E0C0ED5
:102A5E00166EAAEC1DF0DEEC1DF0000E176E800E49
:102A6E00166EAAEC1DF0010E1A6E080E1B6EB4EC5B
:102A7E001AF0000E0001F16F020EF06FDEEC1DF089
:102A8E00060E0001E56F130EE46FAD0EE82EFED7B5
:102A9E00E42FFCD7E52FFAD700D0000E176E800E6C
:102AAE00166EAAEC1DF0060E1A6E080E1B6EB4EC16
:102ABE001AF0000E176EC00E166EAAEC1DF0F20E76
:102ACE000001D46F000ED56F230ED66F080ED76F90
:102ADE003FC0D8F040C0D9F041C0DAF042C0DBF0C0
:102AEE005EEC1CF0F20E1A6E000E1B6EB4EC1AF0B9
:102AFE00060E0001E56F130EE46FAD0EE82EFED745
:102B0E00E42FFCD7E52FFAD700D00001F04BF12BC4
:102B1E00F1BF9BEF15F0F15109E1050EF05DD8A064
:102B2E009BEF15F09DEF15F045EF15F0000EF16FD0
:102B3E00000EF06F45EF15F007EF00F01834193462
:102B4E001F6E1F50D8A4AEEF15F0B0EF15F0BAEF10
:102B5E0015F0000E166E000E176E000E186E000E9B
:102B6E00196E27EF16F016C01AF017C01BF018C01A
:102B7E001CF019C01DF0200ECAEF15F0D8901D32B2
:102B8E001C321B321A32E82EC5EF15F01A501E6E8B
:102B9E00188EFF0E1616FF0E1716FF0E1816000EC5
:102BAE001916960E1F5E1FBEE1EF15F0DFEF15F042
:102BBE00F7EF15F01F50800A970FD8B0E9EF15F018
:102BCE00EBEF15F0EDEF15F0B0EF15F0D8901932E0
:102BDE001832173216321F3EEDEF15F00FEF16F0CA
:102BEE001F0E1F64FDEF15F0FFEF15F007EF16F047
:102BFE00B0EF15F0D89016361736183619361F0660
:102C0E001F50D8A40DEF16F00FEF16F001EF16F0CF
:102C1E001E50D8B415EF16F017EF16F01FEF16F082
:102C2E00191E181E171E166C000E172218221922B6
:102C3E0016C016F017C017F018C018F019C019F00A
:102C4E001200000E2F140001606F000E3014616F21
:102C5E00800E3114626F7F0E3214636F60516111FA
:102C6E0062116311D8A43EEF16F040EF16F048EF54
:102C7E0016F0000E2F6E000E306E000E316E000E2E
:102C8E00326E000E3314606F000E3414616F800EBE
:102C9E003514626F7F0E3614636F605161116211CD
:102CAE006311D8A45DEF16F05FEF16F067EF16F024
:102CBE00000E336E000E346E000E356E000E366E44
:102CCE0032AE6CEF16F06EEF16F077EF16F02F6C4B
:102CDE00301ED8B0302A311ED8B0312A800E32566E
:102CEE0036AE7CEF16F07EEF16F087EF16F0336CF3
:102CFE00341ED8B0342A351ED8B0352A800E36563A
:102D0E00000E2F1A000E301A000E311A800E321AD3
:102D1E00000E331A000E341A000E351A800E361AB3
:102D2E0033502F5C3450305835503158365032585D
:102D3E00D8B0A4EF16F0A6EF16F0A9EF16F0D890C3
:102D4E00AAEF16F0D8801200000E0114096E000EC4
:102D5E0002140A6E800E03140B6E7F0E04140C6E9A
:102D6E0009500A100B100C10D8A4C0EF16F0C2EFC9
:102D7E0016F0CAEF16F0000E016E000E026E000E77
:102D8E00036E000E046E000E0514096E000E06147E
:102D9E000A6E800E07140B6E7F0E08140C6E09500F
:102DAE000A100B100C10D8A4DFEF16F0E1EF16F09E
:102DBE00E9EF16F0000E056E000E066E000E076EA1
:102DCE00000E086E04AEEEEF16F0F0EF16F0F9EF0F
:102DDE0016F0016C021ED8B0022A031ED8B0032AC8
:102DEE00800E045608AEFEEF16F000EF17F009EF56
:102DFE0017F0056C061ED8B0062A071ED8B0072A93
:102E0E00800E0856000E011A000E021A000E031A4A
:102E1E00800E041A000E051A000E061A000E071A6E
:102E2E00800E081A0550015C0650025807500358D0
:102E3E0008500458D8B026EF17F028EF17F02BEFF4
:102E4E0017F0D8902CEF17F0D8801200EAC020F0BF
:102E5E00EBC021F0ECC022F0EDC023F016C020F044
:102E6E0017C021F018C022F019C023F020C01AF0AC
:102E7E0021C01BF022C01CF023C01DF0180E4DEF18
:102E8E0017F0D8901D321C321B321A32E82E48EF42
:102E9E0017F01A501E6E1F6A1E501F10D8A45AEF3C
:102EAE0017F05CEF17F07CEF17F0D89020341A6E05
:102EBE0021341B6E22341C6E23341D6E1A501B10CF
:102ECE001C101D10D8A46EEF17F070EF17F076EFF0
:102EDE0017F0000E176E020E166EABEF17F0000E07
:102EEE00176E030E166EABEF17F01E281F10D8A428
:102EFE0083EF17F085EF17F0A7EF17F020C01AF049
:102F0E0021C01BF022C01CF023C01DF0090ED8906A
:102F1E001A361B361C361D36E82E8EEF17F01A5059
:102F2E001B101C101D10D8B49FEF17F0A2EF17F056
:102F3E00010EA3EF17F0000E166E176AABEF17F027
:102F4E00000E176E040E166E1200F4EF17F0000E40
:102F5E003F6E000E406E000E416E000E426E1AEF76
:102F6E0018F0000E3F6E000E406EA00E416E410E28
:102F7E00426E1AEF18F0000E3F6E000E406E200EDD
:102F8E00416E420E426E1AEF18F0000E3F6E000EAA
:102F9E00406E700E416E420E426E1AEF18F0000E29
:102FAE003F6E000E406EA00E416E420E426E1AEF44
:102FBE0018F0000E3F6E000E406EC80E416E420EAF
:102FCE00426E1AEF18F0000E3F6E000E406E200E8D
:102FDE00416E410E426E1AEF18F0F0C001F0F1C0D2
:102FEE0002F00250000AD8B4FFEF17F0EAEF17F024
:102FFE000150000AD8B4AEEF17F0010AD8B4B8EFFA
:10300E0017F0030AD8B4C2EF17F0010AD8B4CCEF08
:10301E0017F0070AD8B4D6EF17F0010AD8B4E0EFCC
:10302E0017F0EAEF17F0120016C01DF017C01EF0D1
:10303E0018C01FF019C020F01A06D8A01B061A28B7
:10304E0006E11B28D8A42EEF18F030EF18F03DEF54
:10305E0018F0000E176E000E166E85EF18F01D4A52
:10306E001E2A1F4A202A1A06D8A01B061DC0D9FFE9
:10307E001EC0DAFFDF50D8B447EF18F049EF18F052
:10308E0074EF18F01FC0F6FF20C0F7FF0800F550D0
:10309E000009D8B455EF18F057EF18F074EF18F088
:1030AE001A501B10D8B45EEF18F060EF18F074EFE2
:1030BE0018F01DC0D9FF1EC0DAFFDF501C6E1FC0F6
:1030CE00F6FF20C0F7FF0800F5501C18D8B472EFB9
:1030DE0018F074EF18F036EF18F01DC0D9FF1EC0AF
:1030EE00DAFFDF501C6E1FC0F6FF20C0F7FF08008E
:1030FE00F5501C5C166E176AD8A0170612001850F1
:10310E001910D8B48DEF18F08FEF18F098EF18F063
:10311E0018501910D8A496EF18F098EF18F09DEFEC
:10312E0018F01650F2EC1DF0EAEF18F020EE04F055
:10313E001850D9261950DA22DE50DE10D8B4AAEF74
:10314E0018F0ACEF18F0C7EF18F020EE04F018509E
:10315E00D9261950DA2210EE02F01850E126195035
:10316E00E222DE50E65CE650800A1E6EDE50800AD9
:10317E001E58D8B0C5EF18F0C7EF18F0EAEF18F0E8
:10318E0020EE02F01850D9261950DA22DECF1AF0AE
:10319E00DDCF1BF018C0D9FF19C0DAFFDECF1CF04F
:1031AE00DDCF1DF01A501C24D96E1B501D20DA6E77
:1031BE0016C0DFFF20EE02F01850D9261950DA2281
:1031CE00DE2A000EDD221200000E1B6E19BEF4EF79
:1031DE0018F0F2EF18F0FAEF18F0186C191ED8B0BC
:1031EE00192A010E1B6E17BE01EF19F0FFEF18F032
:1031FE0007EF19F0166C171ED8B0172A010E1B1AFE
:10320E00000E1D6E000E1C6E18501910D8B412EF61
:10321E0019F014EF19F03CEF19F0010E1A6E1CEFB5
:10322E0019F0D890183619361A2A19AE21EF19F05E
:10323E0023EF19F018EF19F0D8901C361D361850E0
:10324E00165C19501758D8A02FEF19F031EF19F05E
:10325E0036EF19F01850165E1950175A1C80D89078
:10326E00193218321A2E23EF19F01B50D8B442EF30
:10327E0019F044EF19F048EF19F01C6C1D1ED8B070
:10328E001D2A1CC016F01DC017F0120047A052EFE9
:10329E0019F054EF19F05EEF19F028C01FF029C095
:1032AE0020F026C021F027C022F021EC1DF02BBE0D
:1032BE0063EF19F065EF19F06BEF19F02AC02FF0DC
:1032CE002BC030F06FEF19F0000E306E000E2F6E27
:1032DE00000E2E6E000E2D6E81EF19F0000E176E81
:1032EE00200E166E26C018F027C019F086EC18F0C6
:1032FE002D4A2E2A2F502D5C2E50800A2C6E3050C7
:10330E00800A2C58D8A08EEF19F090EF19F075EFB7
:10331E0019F047B095EF19F097EF19F0A1EF19F0EA
:10332E0028C01FF029C020F026C021F027C022F0AF
:10333E0021EC1DF028C016F029C017F0B0EC1CF0DF
:10334E002F501624266E30501720276E12003BC0C9
:10335E0001F03CC002F03DC003F03EC004F03FC09F
:10336E0005F040C006F041C007F042C008F0ABECDB
:10337E0016F0D8A0C5EF19F0C7EF19F0E0EF19F06D
:10338E003FC001F040C002F041C003F042C004F063
:10339E0037C005F038C006F039C007F03AC008F063
:1033AE00ABEC16F0D8B0DEEF19F0E0EF19F006EF47
:1033BE001AF0E5EC1DF0060E0F6E130E0E6EAE0E2D
:1033CE00E82EFED70E2EFCD70F2EFAD7000E026E69
:1033DE00800E016EC4EC1DF0120E056E080E066E08
:1033EE0030EC1BF0060E0F6E130E0E6EAE0EE82EA8
:1033FE00FED70E2EFCD70F2EFAD7E5EC1DF01200DD
:10340E00000E1B6E17BE10EF1AF00EEF1AF016EF2D
:10341E001AF0166C171ED8B0172A010E1B6E19BEA5
:10342E001DEF1AF01BEF1AF021EF1AF0186C191E8F
:10343E00D8B0192A18501910D8B428EF1AF02AEF5C
:10344E001AF04EEF1AF0010E1A6E32EF1AF0D890F3
:10345E00183619361A2A19AE37EF1AF039EF1AF054
:10346E002EEF1AF01850165C19501758D8A042EFCC
:10347E001AF044EF1AF048EF1AF01850165E195071
:10348E00175AD890193218321A2E39EF1AF01B50DB
:10349E00D8B454EF1AF056EF1AF05AEF1AF0166C21
:1034AE00171ED8B0172A16C016F017C017F0120044
:1034BE00000E16141E6E000E17141F6E800E1814BA
:1034CE00206E7F0E1914216E1E501F102010211019
:1034DE00D8A474EF1AF076EF1AF07EEF1AF0000E01
:1034EE00166E000E176E000E186E000E196E000E80
:1034FE001A141E6E000E1B141F6E800E1C14206EEE
:10350E007F0E1D14216E1E501F1020102110D8A4E6
:10351E0093EF1AF095EF1AF09DEF1AF0000E1A6E57
:10352E00000E1B6E000E1C6E000E1D6E1A5016182D
:10353E000FE11B5017180CE11C50181809E11D5013
:10354E001918D8B4ADEF1AF0AFEF1AF0B2EF1AF0B7
:10355E00D890B3EF1AF0D8801200000E226E000E33
:10356E00216E1AC016F01BC017F0B0EC1CF016C07E
:10357E001FF017C020F0E2EF1AF021501A241C6E33
:10358E0022501B201D6E1CC0F6FF1DC0F7FFF86AEF
:10359E00070EF76403D00800F55005D0F6CFE1FF13
:1035AE00F7CFE2FFE7501E6E1E50166E176AB7EC8D
:1035BE001DF0214A222A1F50215C2250800A1C6EC7
:1035CE002050800A1C58D8A0EFEF1AF0F1EF1AF035
:1035DE00C4EF1AF012000600E1CF10F0E2CF11F0A6
:1035EE00F6CF12F0F7CF13F0F8CF14F0F5CF15F0A9
:1035FE00F0A004EF1BF006EF1BF00BEF1BF0F090AA
:10360E000001F007D8A0F107F2AA10EF1BF012EF9D
:10361E001BF022EF1BF0F2A417EF1BF019EF1BF0BB
:10362E0022EF1BF0AEEC19F06EEC1BF0ACEC17F0C9
:10363E00050ED66EF29415C0F5FF14C0F8FF13C038
:10364E00F7FF12C0F6FF11C0E2FF10C0E1FF499272
:10365E001100000E0D6E000E0C6E05C001F006C0BE
:10366E0002F0D7EC1CF001C00AF002C00BF05EEFC6
:10367E001BF00C500524076E0D500620086E07C077
:10368E00F6FF08C0F7FFF86A070EF76403D00800CC
:10369E00F55005D0F6CFE1FFF7CFE2FFE750096E08
:1036AE000950016E026AD1EC1DF00C4A0D2A0A5027
:1036BE000C5C0D50800A076E0B50800A0758D8A07C
:1036CE006BEF1BF06DEF1BF040EF1BF012003FC0D5
:1036DE0001F040C002F041C003F042C004F03BC014
:1036EE0005F03CC006F03DC007F03EC008F0ABEC64
:1036FE0016F0D8B085EF1BF087EF1BF0A0EF1BF094
:10370E0037C001F038C002F039C003F03AC004F0FF
:10371E003FC005F040C006F041C007F042C008F0BF
:10372E00ABEC16F0D8A09EEF1BF0A0EF1BF0A5EFB0
:10373E001BF0000E0001F16F020EF06F1200CEC0F2
:10374E00D2F0CFC0D3F0000E0001EF6F000EEE6F7F
:10375E00C4EF1BF0CCC0B4F0CDC0B5F0D20EB66F36
:10376E00000EB76FD0C0B8F0D1C0B9F04CEC0AF073
:10377E000001B451EE27B551EF23D2C0F6FFD3C0EE
:10378E00F7FF0800F5500009D8A4D0EF1BF0D2EFD8
:10379E001BF0B1EF1BF0EEC0CCF0EFC0CDF012007D
:1037AE00BF0E1E6EFF0E1F6E1CC020F01DC021F03E
:1037BE001E5020261F50212221500AE11A0E205C95
:1037CE00D8A0ECEF1BF0EFEF1BF0010EF0EF1BF0AB
:1037DE00000E226E236A22502310D8B4F9EF1BF08C
:1037EE00FBEF1BF002EF1CF0200E1C101C6E1D5088
:1037FE001D6E06EF1CF01CC01CF01DC01DF012004B
:10380E0018C01CF019C01DF016C01EF017C01FF016
:10381E001C501A6E1D501B6E1C4A1D2A1AC0F6FF34
:10382E001BC0F7FFF86A1EC0D9FF1FC0DAFF1E4A81
:10383E001F2A070EF76403D00800F55005D0F6CF07
:10384E00E1FFF7CFE2FFE750DF6EDF50D8A432EF93
:10385E001CF034EF1CF00FEF1CF01200D80EF66EB9
:10386E003B0EF76E000EF86E00EE37F010EE0CF019
:10387E000900F5CFEEFFE550E150FAE101EE00F060
:10388E00500EEE6AE806FDE100EEE6F0140EEE6A6A
:10389E00E806FDE1486A476A466A456A446A436A31
:1038AE0049904992000EF86E000116EF15F0D80EF1
:1038BE000001DC6F000EDD6FD4C0DEF0D5C0DFF08E
:1038CE00000EE16F000EE06F000EE36F000EE26F70
:1038DE00DE0ECC6F000ECD6FD6C0CEF0D7C0CFF0BF
:1038EE00DC0ED06F000ED16FA6EC1BF00001E05184
:1038FE00D425D96EE151D521DA6E000EDF6E12009D
:10390E00010E1C6E200E16181710D8B491EF1CF075
:10391E0093EF1CF0ACEF1CF0F70E186EFF0E196E45
:10392E0016C01AF017C01BF018501A2619501B2279
:10393E001B5009E1050E1A5CD8A0A8EF1CF0AAEFE7
:10394E001CF0ACEF1CF0000E1C6E1CC016F0176ABB
:10395E00120016C018F017C019F0B8EF1CF0164A76
:10396E00172A16C0F6FF17C0F7FFF86A070EF7649E
:10397E0003D00800F55005D0F6CFE1FFF7CFE2FFF8
:10398E00E7500009D8A4CEEF1CF0D0EF1CF0B6EF34
:10399E001CF01850165C166E19501758176E120040
:1039AE0001C003F002C004F0DFEF1CF0014A022A4E
:1039BE0001C0F6FF02C0F7FFF86A070EF76403D0E6
:1039CE000800F55005D0F6CFE1FFF7CFE2FFE75044
:1039DE000009D8A4F5EF1CF0F7EF1CF0DDEF1CF09A
:1039EE000350015C016E04500258026E1200000E6C
:1039FE00331A000E341A000E351A800E361A2FC0E6
:103A0E0016F030C017F031C018F032C019F033C0C4
:103A1E001AF034C01BF035C01CF036C01DF001EC9E
:103A2E000DF016C02FF017C030F018C031F019C0CD
:103A3E0032F01200000E256E000E246E32EF1DF0D5
:103A4E0023C016F0176A21C018F022C019F086ECB8
:103A5E0018F0244A252A24501F24D96E25502020E0
:103A6E00DA6EDF50236E2350D8A440EF1DF042EFE4
:103A7E001DF027EF1DF01200BF0E186EFF0E196E0F
:103A8E0016C01AF017C01BF018501A2619501B2218
:103A9E001B500AE11A0E1A5CD8A058EF1DF05BEF0E
:103AAE001DF0010E5CEF1DF0000E166E176A12006F
:103ABE001650171018101910D8B468EF1DF06AEFD1
:103ACE001DF072EF1DF0000E161A000E171A000EE2
:103ADE00181A800E191A16C016F017C017F018C053
:103AEE0018F019C019F01200D00E186EFF0E196ED4
:103AFE0016C01AF017C01BF018501A2619501B22A8
:103B0E001B500AE10A0E1A5CD8A090EF1DF093EF3D
:103B1E001DF0010E94EF1DF0000E166E176A1200C6
:103B2E0016501802F3CF1AF0F4CF1BF016501902EC
:103B3E00F3501B2617501802F3501B261AC016F00E
:103B4E001BC017F012008494848216C083FF030EEC
:103B5E00186E980EE82EFED7182EFCD784921200FF
:103B6E008484848216C083FF030E186E980EE82E8E
:103B7E00FED7182EFCD7849212008494848201C042
:103B8E0083FF030E036E980EE82EFED7032EFCD78E
:103B9E00849212008484848201C083FF030E036E1C
:103BAE00980EE82EFED7032EFCD784921200000E3C
:103BBE00176E010E166EAAEC1DF01200000E026EAC
:103BCE00010E016EC4EC1DF01200000070410000E9
:083BDE00AA420000204212007F
:020000040020DA
:08000000FFFFFFFFFFFFFFFF00
:020000040030CA
:0E000000000C1F1EFF8385FF0FC00FE00F4096
:00000001FF
