:0400000007EF00F016
:0A0008004182B4ED16F0AFEF1EF0D8
:10080000004354524C2054656D706572617475726A
:1008100061004552524F2054656D70657261747568
:1008200072610025332E326600494E46004E414E1D
:0D08300000696E66006E616E006C6600006F
:10083E00000E0001A86F000EA76F83C0B9F084C030
:10084E00BAF085C0BBF086C0BCF0BCBF33EF04F07D
:10085E0031EF04F049EF04F0000EA86F010EA76F00
:10086E00B9C01FF0BAC020F0BBC021F0BCC022F04E
:10087E009EEC20F01FC0B9F020C0BAF021C0BBF032
:10088E0022C0BCF0000E0001C06F000EBF6FF1C0A1
:10089E00ABF0F2C0ACF0A751A811D8A459EF04F0F8
:1008AE005BEF04F062EF04F037A460EF04F062EF48
:1008BE0004F07CEF04F0A751A811D8A469EF04F05E
:1008CE006BEF04F071EF04F0000E8E6F2B0E8D6F38
:1008DE0075EF04F0000E8E6F2D0E8D6F8DC000F132
:1008EE00BF4BC02BAB07D8A0AC07B9C01FF0BAC026
:1008FE0020F0BBC021F0BCC022F066EC1AF01F0441
:10090E002010D8A48DEF04F08FEF04F0E7EF04F081
:10091E00BF0E0001886FFF0E896F87518A6F8B6B38
:10092E0088518A2789518B238B510AE11A0E8A5DD1
:10093E00D8A0A4EF04F0A7EF04F0010EA8EF04F086
:10094E00000E8F6F906B8F519011D8B4B1EF04F0F1
:10095E00B3EF04F0C1EF04F0000EBF251F6E010EC1
:10096E00C021206E290E216E080E226E46EC1FF05D
:10097E00CDEF04F0000EBF251F6E010EC021206EBC
:10098E00310E216E080E226E46EC1FF00001FD0E98
:10099E00AB27FF0EAC2381C064F082C065F0000E61
:1009AE000001666F010E676FABC068F0ACC069F0F6
:1009BE001FEC1CF064C081F065C082F04DEF0AF0B0
:1009CE00B9C01FF0BAC020F0BBC021F0BCC022F0ED
:1009DE0066EC1AF01F502010D8A4F8EF04F0FAEFCE
:1009EE0004F03AEF05F0BF0E0001886FFF0E896F1D
:1009FE0087518A6F8B6B88518A2789518B238B5134
:100A0E000AE11A0E8A5DD8A00FEF05F012EF05F07D
:100A1E00010E13EF05F0000E916F926B9151921132
:100A2E00D8B41CEF05F01EEF05F02CEF05F0000E0C
:100A3E00BF251F6E010EC021206E2D0E216E080ED9
:100A4E00226E46EC1FF0CDEF04F0000EBF251F6E98
:100A5E00010EC021206E350E216E080E226E46EC60
:100A6E001FF0CDEF04F0000E0001C16F000EC26F3B
:100A7E00800EC36F3F0EC46F000EBE6F000EBD6FB3
:100A8E00B9C01FF0BAC020F0BBC021F0BCC022F02C
:100A9E00000E236E000E246E000E256E000E266EC6
:100AAE0098EC1DF0D8B05EEF05F060EF05F0E5EFC5
:100ABE0005F07FEF05F0C1C01FF0C2C020F0C3C02B
:100ACE0021F0C4C022F0000E236E000E246E200E04
:100ADE00256E410E266EC5EC11F01FC0C1F020C070
:100AEE00C2F021C0C3F022C0C4F00001BD4BBE2B2A
:100AFE00B9C06DF0BAC06EF0BBC06FF0BCC070F084
:100B0E00000E236E000E246E200E256E410E266EF4
:100B1E00C1C01FF0C2C020F0C3C021F0C4C022F07B
:100B2E00C5EC11F01FC071F020C072F021C073F03F
:100B3E0022C074F061EC19F00001D8B0A9EF05F0F5
:100B4E00ABEF05F062EF05F0CBEF05F0C1C01FF083
:100B5E00C2C020F0C3C021F0C4C022F0000E236E2C
:100B6E00000E246E200E256E410E266EDBEC13F069
:100B7E001FC0C1F020C0C2F021C0C3F022C0C4F01B
:100B8E000001BD07D8A0BE07B9C06DF0BAC06EF0A7
:100B9E00BBC06FF0BCC070F0C1C071F0C2C072F0CB
:100BAE00C3C073F0C4C074F061EC19F00001D8A09A
:100BBE00E3EF05F0E5EF05F0ADEF05F087C025F0AA
:100BCE00266A15EC1FF025500001AE6FAEC0ADF0D9
:100BDE00670EAE19D8A4F6EF05F0F8EF05F01EEF8C
:100BEE0006F0F351F411D8A4FFEF05F001EF06F073
:100BFE0005EF06F0000EF46F010EF36FF4BF12EF67
:100C0E0006F0F45106E1F305D8B010EF06F012EF3E
:100C1E0006F018EF06F0000EAA6F060EA96F27EF6A
:100C2E0006F0F3C0A9F0F4C0AAF027EF06F0F4BF67
:100C3E0023EF06F025EF06F012EF06F018EF06F0A0
:100C4E00670EAE19D8A42EEF06F030EF06F05FEF68
:100C5E0006F0BEAF3EEF06F0FC0EBD5DFF0EBE59B8
:100C6E00D8A03CEF06F03EEF06F05DEF06F0FF0E6B
:100C7E00886FFF0E896FA9C08AF0AAC08BF08851C9
:100C8E008A2789518B23BD518A5D8B51800A8C6FC7
:100C9E00BE51800A8C59D8A057EF06F059EF06F0D6
:100CAE005DEF06F0660EAD6F5FEF06F0650EAD6F91
:100CBE00A9C09FF0AAC0A0F0670EAE19D8A46AEF23
:100CCE0006F06CEF06F07CEF06F0660EAD19D8A4B8
:100CDE0073EF06F075EF06F07EEF06F0BEBF7CEF09
:100CEE0006F07AEF06F07EEF06F09F4BA02B660E15
:100CFE00AD19D8A485EF06F087EF06F0A7EF06F042
:100D0E00BEBF8EEF06F08CEF06F09AEF06F0000EE7
:100D1E00C16F000EC26F800EC36F3F0EC46F000E08
:100D2E00BE6F000EBD6F670EAE19D8B4A1EF06F000
:100D3E00A3EF06F0A7EF06F0BD519F27BE51A023EB
:100D4E00000EB86F000EB76FB9C0AFF0BAC0B0F0FA
:100D5E00BBC0B1F0BCC0B2F0C1C0A1F0C2C0A2F025
:100D6E00C3C0A3F0C4C0A4F038EF07F0AFC01FF0AB
:100D7E00B0C020F0B1C021F0B2C022F0C1C023F04B
:100D8E00C2C024F0C3C025F0C4C026F0DBEC13F0C3
:100D9E001FC06DF020C06EF021C06FF022C070F049
:100DAE00A9EC15F06DC0B3F06EC0B4F06FC0B5F025
:100DBE0070C0B6F0B3C01FF0B4C020F0B5C021F0C3
:100DCE00B6C022F0DEEC18F01FC0A5F020C0A6F0D1
:100DDE00AFC06DF0B0C06EF0B1C06FF0B2C070F0C9
:100DEE00C1C023F0C2C024F0C3C025F0C4C026F099
:100DFE00B3C01FF0B4C020F0B5C021F0B6C022F0D1
:100E0E00C5EC11F01FC071F020C072F021C073F05C
:100E1E0022C074F018EC20F06DC0AFF06EC0B0F0D0
:100E2E006FC0B1F070C0B2F0C1C01FF0C2C020F0F0
:100E3E00C3C021F0C4C022F0000E236E000E246E3B
:100E4E00200E256E410E266EDBEC13F01FC0C1F096
:100E5E0020C0C2F021C0C3F022C0C4F00001B74BC5
:100E6E00B82B9F51B75DB851800A886FA051800A88
:100E7E008859D8A045EF07F047EF07F0BDEF06F011
:100E8E00C1C01FF0C2C020F0C3C021F0C4C022F008
:100E9E00000E236E000E246EA00E256E400E266EE2
:100EAE00C5EC11F01FC0B3F020C0B4F021C0B5F0F6
:100EBE0022C0B6F0AFC06DF0B0C06EF0B1C06FF032
:100ECE00B2C070F0B3C071F0B4C072F0B5C073F0C0
:100EDE00B6C074F061EC19F00001D8B079EF07F0EC
:100EEE007BEF07F085EF07F0000EB36F000EB46FC7
:100EFE00000EB56F000EB66FAEEF07F0AFC01FF06D
:100F0E00B0C020F0B1C021F0B2C022F0B3C023F0C7
:100F1E00B4C024F0B5C025F0B6C026F098EC1DF094
:100F2E00D8A09CEF07F09EEF07F0AEEF07F00001A0
:100F3E00A5B1A4EF07F0A6EF07F0AEEF07F0000E95
:100F4E00B36F000EB46F000EB56F000EB66FB9C062
:100F5E001FF0BAC020F0BBC021F0BCC022F0B3C05D
:100F6E0023F0B4C024F0B5C025F0B6C026F004ECD2
:100F7E000DF01FC0AFF020C0B0F021C0B1F022C004
:100F8E00B2F0AFC06DF0B0C06EF0B1C06FF0B2C0D5
:100F9E0070F0000E236E000E246E200E256E410E94
:100FAE00266EA1C01FF0A2C020F0A3C021F0A4C0E5
:100FBE0022F0C5EC11F01FC071F020C072F021C0FC
:100FCE0073F022C074F061EC19F00001D8A0F2EFBA
:100FDE0007F0F4EF07F01CEF08F0BD4BBE2BA1C0DD
:100FEE001FF0A2C020F0A3C021F0A4C022F0000E7A
:100FFE00236E000E246E200E256E410E266EC5EC5D
:10100E0011F01FC0A1F020C0A2F021C0A3F022C099
:10101E00A4F0660E0001AD19D8A418EF08F01AEF6F
:10102E0008F01CEF08F09F4BA02BA1C0C1F0A2C08E
:10103E00C2F0A3C0C3F0A4C0C4F0650EAD19D8B4FD
:10104E002BEF08F02DEF08F033EF08F0BDC09DF048
:10105E00BEC09EF037EF08F0000E9E6F000E9D6F23
:10106E00000E9C6F000E9B6F000E9A6F000E996F14
:10107E00000EB86F000EB76F33EF09F0AFC01FF060
:10108E00B0C020F0B1C021F0B2C022F0C1C023F038
:10109E00C2C024F0C3C025F0C4C026F0DBEC13F0B0
:1010AE001FC06DF020C06EF021C06FF022C070F036
:1010BE00A9EC15F06DC0B3F06EC0B4F06FC0B5F012
:1010CE0070C0B6F0B3C01FF0B4C020F0B5C021F0B0
:1010DE00B6C022F0DEEC18F01FC0A5F020C0A6F0BE
:1010EE0037B87CEF08F07EEF08F09CEF08F00001B7
:1010FE00A551A611D8A486EF08F088EF08F09CEF52
:10110E0008F0670EAE19D8A48FEF08F091EF08F033
:10111E009CEF08F09EBF98EF08F096EF08F09CEF5A
:10112E0008F0994B9A2BE7EF08F000019B519C11A8
:10113E00D8A4A4EF08F0A6EF08F0D0EF08F09EBFF9
:10114E00ADEF08F0ABEF08F0D0EF08F0000EBF25C2
:10115E00D96E010EC021DA6E2E0EDF6EBF4BC02B84
:10116E00AB07D8A0AC07000E9C6F010E9B6FD0EFA3
:10117E0008F0000EBF25D96E010EC021DA6E300EBA
:10118E00DF6EBF4BC02BAB07D8A0AC079907D8A01A
:10119E009A0799519A11D8A4D7EF08F0D9EF08F011
:1011AE00C0EF08F0000EBF25D96E010EC021DA6E19
:1011BE00A551300FDF6EBF4BC02BAB07D8A0AC07CD
:1011CE00AFC06DF0B0C06EF0B1C06FF0B2C070F0D5
:1011DE00C1C023F0C2C024F0C3C025F0C4C026F0A5
:1011EE00B3C01FF0B4C020F0B5C021F0B6C022F0DD
:1011FE00C5EC11F01FC071F020C072F021C073F069
:10120E0022C074F018EC20F06DC0AFF06EC0B0F0DC
:10121E006FC0B1F070C0B2F0C1C01FF0C2C020F0FC
:10122E00C3C021F0C4C022F0000E236E000E246E47
:10123E00200E256E410E266EDBEC13F01FC0C1F0A2
:10124E0020C0C2F021C0C3F022C0C4F000019D072F
:10125E00D8A09E07B74BB82B9F51B75DB851800AE7
:10126E00886FA051800A8859D8B040EF09F042EF3C
:10127E0009F050EF09F0C0BF4EEF09F0C05109E17F
:10128E004B0EBF5DD8A04EEF09F050EF09F045EFC1
:10129E0008F09B519C11D8A457EF09F059EF09F0B3
:1012AE006AEF09F037A85EEF09F060EF09F06AEF18
:1012BE0009F0000EBF25D96E010EC021DA6E2E0E7A
:1012CE00DF6EBF4BC02B000EBF25D96E010EC021A5
:1012DE00DA6E000EDF6E650EAD19D8A479EF09F047
:1012EE007BEF09F0D2EF04F0000EB86F4F0EB76F20
:1012FE00000EB725D96E010EB821DA6E000EDF6E24
:10130E00000EA86F000EA76FBEBF92EF09F090EF10
:10131E0009F09AEF09F0000EA86F010EA76FBD6DD0
:10132E00BE1FD8B0BE2B000EAA6F020EA96FCBEF58
:10133E0009F0B707D8A0B807000EB725D96E010E71
:10134E00B821DA6EBDC01FF0BEC020F0000E226EB6
:10135E000A0E216E40EC1DF01F50300FDF6EBDC027
:10136E001FF0BEC020F0000E226E0A0E216E83EC1E
:10137E001CF01FC0BDF020C0BEF00001A907D8A010
:10138E00AA07AB07D8A0AC07BD51BE11D8A4D2EFA7
:10139E0009F0D4EF09F0A0EF09F0AABFE1EF09F0D0
:1013AE00AA5106E1A905D8B0DFEF09F0E1EF09F087
:1013BE00A0EF09F0B707D8A0B807A751A811D8A475
:1013CE00EBEF09F0EDEF09F0F3EF09F0000E946F7B
:1013DE002B0E936FF7EF09F0000E946F2D0E936F97
:1013EE00000EB725D96E010EB821DA6E93C0DFFF5D
:1013FE00AB07D8A0AC07B707D8A0B807BF0E886F49
:10140E00FF0E896F87518A6F8B6B88518A2789519E
:10141E008B238B510AE11A0E8A5DD8A019EF0AF0C0
:10142E001CEF0AF0010E1DEF0AF0000E976F986B7D
:10143E0097519811D8A426EF0AF028EF0AF02EEF54
:10144E000AF0000E966F650E956F32EF0AF0000EE1
:10145E00966F450E956F000EB725D96E010EB82109
:10146E00DA6E95C0DFFFAB07D8A0AC07000EBF2524
:10147E001F6E010EC021206E000EB725216E010ECB
:10148E00B821226E46EC1FF0D2EF04F01200C7C056
:10149E00D9FFC8C0DAFFDECFF6FFDDCFF7FF0800B9
:1014AE00F550250AD8A45EEF0AF060EF0AF0E8EFD7
:1014BE000CF0C7C0D9FFC8C0DAFFDE2A000EDD224D
:1014CE00000E0001F26F000EF16FF1C037F0F2C0A6
:1014DE0038F0F369F469C7C0D9FFC8C0DAFFDECFB0
:1014EE00F6FFDDCFF7FF0800F5502A0AD8A482EFE9
:1014FE000AF084EF0AF0ADEF0AF0C7C0D9FFC8C0FA
:10150E00DAFFDE2A000EDD22C9C0D9FFCAC0DAFF1B
:10151E00DFCFCBF0020EDE26DFCFCCF0000EDD22C9
:10152E00CBC0D9FFCCC0DAFFDECFF1F0DDCFF2F0C9
:10153E00F2BFA6EF0AF0A4EF0AF0F1EF0AF037803F
:10154E00F16DF21FD8B0F22BF1EF0AF0C7C0D9FF40
:10155E00C8C0DAFFDECF26F0DDCF27F08AEC17F019
:10156E0026C0F1F027C0F2F0C4EF0AF0C7C0D9FFD1
:10157E00C8C0DAFFDE2A000EDD22D00E0001CB6FCE
:10158E00FF0ECC6FC7C0D9FFC8C0DAFFDECFF6FFA3
:10159E00DDCFF7FF0800F550CD6FCE6BCB51CD27C9
:1015AE00CC51CE23CE510AE10A0ECD5DD8A0E2EF8A
:1015BE000AF0E5EF0AF0010EE6EF0AF0000ECF6F2B
:1015CE00D06BCF51D011D8A4EFEF0AF0F1EF0AF0A3
:1015DE00BDEF0AF0C7C0D9FFC8C0DAFFDECFF6FFF5
:1015EE00DDCFF7FF0800F5502E0AD8A401EF0BF05F
:1015FE0003EF0BF081EF0BF0000EF46F000EF36FA4
:10160E00C7C0D9FFC8C0DAFFDE2A000EDD22C7C070
:10161E00D9FFC8C0DAFFDECFF6FFDDCFF7FF080037
:10162E00F5502A0AD8A41EEF0BF020EF0BF03DEF79
:10163E000BF0C7C0D9FFC8C0DAFFDE2A000EDD22CC
:10164E00C9C0D9FFCAC0DAFFDFCFCBF0020EDE264B
:10165E00DFCFCCF0000EDD22CBC0D9FFCCC0DAFF3D
:10166E00DECFF3F0DDCFF4F081EF0BF0C7C0D9FF82
:10167E00C8C0DAFFDECF26F0DDCF27F08AEC17F0F8
:10168E0026C0F3F027C0F4F054EF0BF0C7C0D9FF1B
:10169E00C8C0DAFFDE2A000EDD22D00E0001CB6FAD
:1016AE00FF0ECC6FC7C0D9FFC8C0DAFFDECFF6FF82
:1016BE00DDCFF7FF0800F550CD6FCE6BCB51CD27A8
:1016CE00CC51CE23CE510AE10A0ECD5DD8A072EFD9
:1016DE000BF075EF0BF0010E76EF0BF0000ED16FE5
:1016EE00D26BD151D211D8A47FEF0BF081EF0BF05A
:1016FE004DEF0BF0C7C0D9FFC8C0DAFFDECFF6FF43
:10170E00DDCFF7FF0800F550256E266A15EC1FF0A9
:10171E0025500001D96FD951D8B498EF0BF09AEF3C
:10172E000BF0D4EF0BF0C7C0D9FFC8C0DAFFDECF85
:10173E00CBF0DDCFCCF0010ECB27000ECC23CBC0EF
:10174E00F6FFCCC0F7FF0800F550256E266A15ECA3
:10175E001FF025500001DA6FDA51D8B4B9EF0BF053
:10176E00BBEF0BF0D4EF0BF0C7C0D9FFC8C0DAFF48
:10177E00DECFCBF0DDCFCCF0020ECB27000ECC238C
:10178E00CBC0F6FFCCC0F7FF0800F550256E266AD9
:10179E0015EC1FF025500001DB6F660ED919D8A489
:1017AE00DBEF0BF0DDEF0BF01DEF0CF0C7C0D9FF38
:1017BE00C8C0DAFFDECFF6FFDDCFF7FF0800F5CFAA
:1017CE00DCF0C7C0D9FFC8C0DAFFDE2A000EDD226A
:1017DE00C9C0D9FFCAC0DAFFDFCFCBF0040EDE26B8
:1017EE00DFCFCCF0000EDD22CBC0D9FFCCC0DAFFAC
:1017FE00DECFD5F0DECFD6F0DECFD7F0DECFD8F00D
:10180E00C5C081F0C6C082F0D5C083F0D6C084F0CA
:10181E00D7C085F0D8C086F0DCC087F01FEC04F08E
:10182E0081C0C5F082C0C6F003EF0DF0D90E1F6E59
:10183E00000E206E390E216E080E226E000E246EE2
:10184E00020E236EE6EC1AF01F502010D8A432EFD1
:10185E000CF034EF0CF0B0EF0CF0C7C0D9FFC8C0DD
:10186E00DAFFDECFCBF0DDCFCCF0010E0001CB27BF
:10187E00000ECC23CBC0F6FFCCC0F7FF0800F5CF8F
:10188E00DCF0BF0ECB6FFF0ECC6FC7C0D9FFC8C048
:10189E00DAFFDECFF6FFDDCFF7FF0800F550CD6F94
:1018AE00CE6BCB51CD27CC51CE23CE510AE11A0EA1
:1018BE00CD5DD8A065EF0CF068EF0CF0010E69EF6E
:1018CE000CF0000ED36FD46BD351D411D8B472EF89
:1018DE000CF074EF0CF08EEF0CF0C9C0D9FFCAC03B
:1018EE00DAFFDFCFCBF0040EDE26DFCFCCF0000E1A
:1018FE00DD22CBC0D9FFCCC0DAFFDECFD5F0DECFF4
:10190E00D6F0DECFD7F0DECFD8F0A6EF0CF0C9C000
:10191E00D9FFCAC0DAFFDFCFCBF0040EDE26DFCF51
:10192E00CCF0000EDD22CBC0D9FFCCC0DAFFDECF6B
:10193E00D5F0DECFD6F0DECFD7F0DECFD8F0020E68
:10194E00C7C0D9FFC8C0DAFFDE26000EDD2207EFC2
:10195E000CF0C7C0D9FFC8C0DAFFDECFF6FFDDCF6F
:10196E00F7FF0800F550250AD8A4C0EF0CF0C2EF1F
:10197E000CF0DAEF0CF0C7C0D9FFC8C0DAFFDE2AD0
:10198E00000EDD22000E206E250E1F6EC5C021F04A
:10199E00C6C022F0BAEC1BF0000E0001C66F010E9D
:1019AE00C56F03EF0DF0C7C0D9FFC8C0DAFFDE2A3E
:1019BE00000EDD22000E0001C66F000EC56F03EF94
:1019CE000DF0C7C0D9FFC8C0DAFFDECFF6FFDDCFFE
:1019DE00F7FF0800F5501F6E206AC5C021F0C6C083
:1019EE0022F0BAEC1BF0C7C0D9FFC8C0DAFFDE2A5E
:1019FE00000EDD22D3EF0CF012002250800B0001FE
:101A0E00606F22502224626F21AE10EF0DF012EFA4
:101A1E000DF013EF0DF062816251D8B419EF0DF095
:101A2E001BEF0DF030EF0DF06229D8A421EF0DF071
:101A3E0023EF0DF02BEF0DF0000E1F6E000E206E3B
:101A4E00000E216E000E226E218E000E226E38EFD9
:101A5E000DF0000E1F6E000E206E000E216E000E99
:101A6E00226E2650800B616F60516119D8B442EF1F
:101A7E000DF044EF0DF045EF0DF0608D265026244D
:101A8E00616F25AE4DEF0DF04FEF0DF050EF0DF0F5
:101A9E0061816151D8B456EF0DF058EF0DF06DEF36
:101AAE000DF06129D8A45EEF0DF060EF0DF068EF38
:101ABE000DF0000E236E000E246E000E256E000E2D
:101ACE00266E258E000E266E75EF0DF0000E236E1F
:101ADE00000E246E000E256E000E266E6251615DA4
:101AEE00D8B07CEF0DF07EEF0DF0A5EF0DF060ADF0
:101AFE0083EF0DF085EF0DF087EF0DF0800E601B7C
:101B0E0062C063F061C062F063C061F01FC063F039
:101B1E0023C01FF063C023F020C063F024C020F068
:101B2E0063C024F021C063F025C021F063C025F00E
:101B3E0022C063F026C022F063C026F0000E636F51
:101B4E00625161C027F0286A275E000E285A28BE0F
:101B5E00BAEF0DF0285009E11A0E275CD8A0BAEFA3
:101B6E000DF0BCEF0DF0F3EF0DF01F502010211013
:101B7E002210D8A4C5EF0DF0C8EF0DF0010EC9EF7D
:101B8E000DF0000E636F000E1F6E000E206E000E25
:101B9E00216E000E226E61C062F0FCEF0DF063A1AB
:101BAE00DBEF0DF0DDEF0DF0E3EF0DF0D8906331CC
:101BBE000109636FE5EF0DF0D89063331FA0EAEFD4
:101BCE000DF0ECEF0DF0EDEF0DF0638F22342232BD
:101BDE00213220321F32622B6151625DD8A0FAEFA2
:101BEE000DF0FCEF0DF0D6EF0DF060BD01EF0EF035
:101BFE0003EF0EF043EF0EF06251D8A409EF0EF092
:101C0E000BEF0EF015EF0EF0000E1F6E000E206E95
:101C1E00000E216E000E226E64EF0FF023501F2671
:101C2E0024502022255021222650222222A022EFAB
:101C3E000EF024EF0EF0D0EF0EF063A129EF0EF0B0
:101C4E002BEF0EF031EF0EF0D89063310109636F78
:101C5E0033EF0EF0D89063331FA038EF0EF03AEF4B
:101C6E000EF03BEF0EF0638F2234223221322032FF
:101C7E001F32622BD0EF0EF023501F5C24502058E1
:101C8E00255021582250800A276E2650800A275848
:101C9E00D8B054EF0EF056EF0EF081EF0EF01F504D
:101CAE00235C276E20502458286E21502558296E0B
:101CBE00225026582A6EFF0E27241F6EFF0E282054
:101CCE00206EFF0E2920216EFF0E2A20226E800E1E
:101CDE00601B636D6351D8A477EF0EF079EF0EF0B1
:101CEE0089EF0EF0010E1F26000E20222122222245
:101CFE0089EF0EF023501F5E2450205A2550215A92
:101D0E002650225A1F50201021102210D8A492EFD4
:101D1E000EF094EF0EF0C9EF0EF06351D8A49AEFC7
:101D2E000EF09CEF0EF0C9EF0EF0000E1F6E000EBF
:101D3E00206E000E216E000E226E64EF0FF0D89012
:101D4E001F3620362136223663AFB0EF0EF0B2EFDB
:101D5E000EF0B3EF0EF01F8063A1B8EF0EF0BAEFE6
:101D6E000EF0BEEF0EF0D8806337C0EF0EF0D890B5
:101D7E0063376251D8B4C6EF0EF0C8EF0EF0C9EF5C
:101D8E000EF0620721AECEEF0EF0D0EF0EF0A6EF02
:101D9E000EF0000E616F63AFD7EF0EF0D9EF0EF0BD
:101DAE00F1EF0EF063C027F07F0E2716D8B4E2EFE6
:101DBE000EF0E4EF0EF0E8EF0EF0010E616FF1EFB2
:101DCE000EF01FA0EDEF0EF0EFEF0EF0F1EF0EF0B4
:101DDE00E4EF0EF06151D8B4F7EF0EF0F9EF0EF01C
:101DEE0024EF0FF0010E1F26000E202221222222A8
:101DFE0022A004EF0FF006EF0FF024EF0FF01FC03C
:101E0E0027F020C028F021C029F022C02AF02A3461
:101E1E002A3229322832273227C01FF028C020F05C
:101E2E0029C021F02AC022F06229D8B421EF0FF088
:101E3E0023EF0FF024EF0FF0622B6229D8B42AEFB4
:101E4E000FF02CEF0FF034EF0FF06251D8A432EFF9
:101E5E000FF034EF0FF046EF0FF0000E1F6E000E76
:101E6E00206E000E216E000E226E6251D8A442EF3B
:101E7E000FF044EF0FF046EF0FF0000E606F62A10F
:101E8E004BEF0FF04DEF0FF050EF0FF0218E51EFA3
:101E9E000FF0219ED8906231226E60AF59EF0FF095
:101EAE005BEF0FF05CEF0FF0228E1FC01FF020C013
:101EBE0020F021C021F022C022F012000450800B2D
:101ECE000D6E045004240F6E03AE70EF0FF072EF20
:101EDE000FF073EF0FF00F800F50D8B479EF0FF0B3
:101EEE007BEF0FF090EF0FF00F28D8A481EF0FF0DB
:101EFE0083EF0FF08BEF0FF0000E016E000E026EEF
:101F0E00000E036E000E046E038E000E046E98EF2C
:101F1E000FF0000E016E000E026E000E036E000E2C
:101F2E00046E0850800B0E6E0D500E18D8B4A2EF32
:101F3E000FF0A4EF0FF0A5EF0FF00D8C0850082452
:101F4E000E6E07AEADEF0FF0AFEF0FF0B0EF0FF07C
:101F5E000E800E50D8B4B6EF0FF0B8EF0FF0CDEFF5
:101F6E000FF00E28D8A4BEEF0FF0C0EF0FF0C8EFA1
:101F7E000FF0000E056E000E066E000E076E000EC0
:101F8E00086E078E000E086ED5EF0FF0000E056E70
:101F9E00000E066E000E076E000E086E0F500E5CE1
:101FAE00D8B0DCEF0FF0DEEF0FF005EF10F00DAC58
:101FBE00E3EF0FF0E5EF0FF0E7EF0FF0800E0D1AE5
:101FCE000FC010F00EC00FF010C00EF001C010F0D8
:101FDE0005C001F010C005F002C010F006C002F0FE
:101FEE0010C006F003C010F007C003F010C007F0D9
:101FFE0004C010F008C004F010C008F0000E106EFF
:10200E000F500EC009F00A6A095E000E0A5A0ABE87
:10201E001AEF10F00A5009E11A0E095CD8A01AEF57
:10202E0010F01CEF10F053EF10F0015002100310DF
:10203E000410D8A425EF10F028EF10F0010E29EFB0
:10204E0010F0000E106E000E016E000E026E000EED
:10205E00036E000E046E0EC00FF05CEF10F010A0B9
:10206E003BEF10F03DEF10F043EF10F0D890103032
:10207E000109106E45EF10F0D890103201A04AEF12
:10208E0010F04CEF10F04DEF10F0108E04340432BF
:10209E000332023201320F2A0E500F5CD8A05AEFD3
:1020AE0010F05CEF10F036EF10F00DBC61EF10F099
:1020BE0063EF10F0A3EF10F00F50D8A469EF10F0FB
:1020CE006BEF10F075EF10F0000E016E000E026E49
:1020DE00000E036E000E046EC4EF11F005500126C3
:1020EE0006500222075003220850042204A082EF59
:1020FE0010F084EF10F030EF11F010A089EF10F017
:10210E008BEF10F091EF10F0D89010300109106E97
:10211E0093EF10F0D890103201A098EF10F09AEFD4
:10212E0010F09BEF10F0108E0434043203320232A2
:10213E0001320F2A30EF11F00550015C06500258A3
:10214E00075003580450800A096E0850800A095837
:10215E00D8B0B4EF10F0B6EF10F0E1EF10F0015080
:10216E00055C096E025006580A6E035007580B6E36
:10217E00045008580C6EFF0E0924016EFF0E0A2043
:10218E00026EFF0E0B20036EFF0E0C20046E800EEF
:10219E000D1A106C1050D8A4D7EF10F0D9EF10F024
:1021AE00E9EF10F0010E0126000E02220322042296
:1021BE00E9EF10F00550015E0650025A0750035A1F
:1021CE000850045A0150021003100410D8A4F2EF64
:1021DE0010F0F4EF10F029EF11F01050D8A4FAEF30
:1021EE0010F0FCEF10F029EF11F0000E016E000E52
:1021FE00026E000E036E000E046EC4EF11F0D89046
:10220E00013602360336043610AE10EF11F012EF1F
:10221E0011F013EF11F0018010A018EF11F01AEF6A
:10222E0011F01EEF11F0D880103620EF11F0D8907B
:10223E0010360F50D8B426EF11F028EF11F029EF19
:10224E0011F00F0603AE2EEF11F030EF11F006EF86
:10225E0011F0000E0E6E10AE37EF11F039EF11F0D7
:10226E0051EF11F010C009F07F0E0916D8B442EFED
:10227E0011F044EF11F048EF11F0010E0E6E51EF18
:10228E0011F001A04DEF11F04FEF11F051EF11F0E1
:10229E0044EF11F00E50D8B457EF11F059EF11F082
:1022AE0084EF11F0010E0126000E022203220422F9
:1022BE0004A064EF11F066EF11F084EF11F001C08D
:1022CE0009F002C00AF003C00BF004C00CF00C348D
:1022DE000C320B320A32093209C001F00AC002F088
:1022EE000BC003F00CC004F00F28D8B481EF11F02E
:1022FE0083EF11F084EF11F00F2A0F28D8B48AEF74
:10230E0011F08CEF11F094EF11F00F50D8A492EF62
:10231E0011F094EF11F0A6EF11F0000E016E000E09
:10232E00026E000E036E000E046E0F50D8A4A2EFC4
:10233E0011F0A4EF11F0A6EF11F0000E0D6E0FA02C
:10234E00ABEF11F0ADEF11F0B0EF11F0038EB1EF76
:10235E0011F0039ED8900F30046E0DAEB9EF11F050
:10236E00BBEF11F0BCEF11F0048E01C001F002C002
:10237E0002F003C003F004C004F012002250800BE0
:10238E000001606F22502224666F21AED1EF11F052
:10239E00D3EF11F0D4EF11F066816651D8B4DAEFB5
:1023AE0011F0DCEF11F0EFEF11F06629D8A4E2EF97
:1023BE0011F0E4EF11F0ECEF11F0000E1F6E000EB5
:1023CE00206E000E216E000E226E218EF7EF11F0A0
:1023DE00000E1F6E000E206E000E216E000E226E7D
:1023EE002650800B601B26502624616F25AE02EF0F
:1023FE0012F004EF12F005EF12F061816151D8B4C2
:10240E000BEF12F00DEF12F020EF12F06129D8A4AD
:10241E0013EF12F015EF12F01DEF12F0000E236EF7
:10242E00000E246E000E256E000E266E258E28EFF1
:10243E0012F0000E236E000E246E000E256E000E9E
:10244E00266E6151D8B42EEF12F030EF12F038EF45
:10245E0012F06651D8A436EF12F038EF12F042EFB8
:10246E0012F0000E1F6E000E206E000E216E000E7A
:10247E00226EDAEF13F025501F02F3CF6BF0F4CF7C
:10248E006CF06B51626F636B646B656B6C51676F55
:10249E00686B696B6A6B24502002F3CF6BF0F4CF3C
:1024AE006CF06B516227000E6323642365236C511D
:1024BE006727000E682369236A2323502102F3CF76
:1024CE006BF0F4CF6CF06B516227000E6323642324
:1024DE0065236C516727000E682369236A2364C045
:1024EE0065F063C064F062C063F0626B235020023B
:1024FE00F3CF6BF0F4CF6CF06B5162276C5163230A
:10250E00000E6423000E652324501F02F3CF6BF0E0
:10251E00F4CF6CF06B5162276C516323000E642371
:10252E00000E652364C065F063C064F062C063F0A2
:10253E00626B23501F02F3CF6BF0F4CF6CF06B5134
:10254E0062276C516323000E6423000E6523255011
:10255E002002F3CF6BF0F4CF6CF06B5167276C5108
:10256E006823000E6923000E6A2324502102F3CF44
:10257E006BF0F4CF6CF06B5167276C516823000E33
:10258E006923000E6A2325502102F3CF6BF0F4CF9E
:10259E006CF06B51276E6C51286E296A2A6A29C01D
:1025AE002AF028C029F027C028F0276A275067276D
:1025BE0028506823295069232A506A2362C027F0C5
:1025CE0063C028F064C029F065C02AF0190EF5EF3B
:1025DE0012F0D8902A32293228322732E82EF0EF24
:1025EE0012F02750672728506823295069232A5054
:1025FE006A2364C065F063C064F062C063F0626B0E
:10260E00615166C027F0286A2726000E2822820E06
:10261E0027246B6FFF0E28206C6F2BEF13F0D890D2
:10262E006737683769376A3765AF20EF13F022EFE7
:10263E0013F023EF13F06781D89062376337643756
:10264E0065376B07D8A06C0769AF30EF13F032EF28
:10265E0013F016EF13F0000E616F65AF39EF13F044
:10266E003BEF13F05FEF13F0FF0E6215276EFF0EB8
:10267E006315286EFF0E6415296E7F0E65152A6E82
:10268E002750281029102A10D8B450EF13F052EF0B
:10269E0013F056EF13F0010E616F5FEF13F067A1A9
:1026AE005BEF13F05DEF13F05FEF13F052EF13F0EB
:1026BE006151D8B465EF13F067EF13F08BEF13F0A1
:1026CE00010E6727000E682369236A236AA172EF41
:1026DE0013F074EF13F08BEF13F067C027F068C0A0
:1026EE0028F069C029F06AC02AF02A342A32293229
:1026FE002832273227C067F028C068F029C069F059
:10270E002AC06AF06B4B6C2B6CBF96EF13F06C51BA
:10271E0008E16B29D8A096EF13F098EF13F0A2EF13
:10272E0013F0000E676F000E686F800E696F7F0EDC
:10273E006A6FD0EF13F06CBFAFEF13F06C5106E180
:10274E006B05D8B0ADEF13F0AFEF13F0BBEF13F096
:10275E00000E676F000E686F000E696F000E6A6FD5
:10276E00000E606FD0EF13F06BC066F0FF0E6717B0
:10277E00FF0E68177F0E6917000E6A1766A1CAEF63
:10278E0013F0CCEF13F0CDEF13F0698FD8906631C4
:10279E006A6F60516A1367C01FF068C020F069C08D
:1027AE0021F06AC022F012002250800B0001646FEB
:1027BE00225022246B6F21AEE7EF13F0E9EF13F0F6
:1027CE00EAEF13F06B816B51D8B4F0EF13F0F2EF28
:1027DE0013F007EF14F06B29D8A4F8EF13F0FAEF0B
:1027EE0013F002EF14F0000E1F6E000E206E000E9E
:1027FE00216E000E226E218E000E226E0FEF14F04F
:10280E00000E1F6E000E206E000E216E000E226E48
:10281E002650800B641B265026246C6F25AE1AEFB3
:10282E0014F01CEF14F01DEF14F06C816C51D8B441
:10283E0023EF14F025EF14F03AEF14F06C29D8A41E
:10284E002BEF14F02DEF14F035EF14F0000E236E75
:10285E00000E246E000E256E000E266E258E000EC6
:10286E00266E42EF14F0000E236E000E246E000E44
:10287E00256E000E266E2350241025102610D8A487
:10288E004BEF14F04DEF14F065EF14F0000E1F6EC9
:10289E00000E206E000E216E000E226E800E211292
:1028AE007F0E2212645122121FC01FF020C020F092
:1028BE0021C021F022C022F0A8EF15F06B51D8A450
:1028CE006BEF14F06DEF14F077EF14F0000E1F6E37
:1028DE00000E206E000E216E000E226EA8EF15F077
:1028EE006C516BC027F0286A275E000E285A7F0EA7
:1028FE002724656F000E2820666F1FC060F020C071
:10290E0061F021C062F022C063F0000E1F6E000E57
:10291E00206E000E216E000E226E000E676F000EEE
:10292E00686F000E696F000E6A6F000E6C6FD8EF45
:10293E0014F06C51D8B4A6EF14F0A8EF14F0BFEF5A
:10294E0014F0D8906037613762376337D8901F36EE
:10295E002036213622366AAFB7EF14F0B9EF14F0F5
:10296E00BAEF14F01F80D8906737683769376A3727
:10297E002350605D24506159255062592650635989
:10298E00D8A0CCEF14F0CEEF14F0D7EF14F06A8D80
:10299E002350605F2450615B2550625B2650635B61
:1029AE006C2B190E6C65DEEF14F0E0EF14F0A0EF57
:1029BE0014F06051611162116311D8B4E9EF14F093
:1029CE00EBEF14F003EF15F0678103EF15F0D890DD
:1029DE001F362036213622366AAFF8EF14F0FAEFA2
:1029EE0014F0FBEF14F01F80D89067376837693703
:1029FE006A376507D8A0660721AE08EF15F00AEF13
:102A0E0015F0EEEF14F0000E6C6F6AAF11EF15F0CB
:102A1E0013EF15F037EF15F0FF0E6715276EFF0E4B
:102A2E006815286EFF0E6915296E7F0E6A152A6EBF
:102A3E002750281029102A10D8B428EF15F02AEFA5
:102A4E0015F02EEF15F0010E6C6F37EF15F01FA07D
:102A5E0033EF15F035EF15F037EF15F02AEF15F0CF
:102A6E006C51D8B43DEF15F03FEF15F063EF15F054
:102A7E00010E1F26000E20222122222222A04AEF22
:102A8E0015F04CEF15F063EF15F01FC027F020C0C6
:102A9E0028F021C029F022C02AF02A342A32293205
:102AAE002832273227C01FF028C020F029C021F07D
:102ABE002AC022F0654B662B66BF6EEF15F066518D
:102ACE0008E16529D8A06EEF15F070EF15F07BEFD9
:102ADE0015F0000E666F6569000E1F6E000E206EFB
:102AEE00000E216E000E226E66BF88EF15F0665145
:102AFE0006E16505D8B086EF15F088EF15F096EF74
:102B0E0015F0000E666F000E656F000E1F6E000E44
:102B1E00206E000E216E000E226E000E646F65C0D8
:102B2E006BF06BA19DEF15F09FEF15F0A2EF15F076
:102B3E00218EA3EF15F0219ED8906B31226E59EFA6
:102B4E0014F012002BC07DF02CC07EF02DC07FF053
:102B5E002EC080F06DC07DF06EC07EF06FC07FF035
:102B6E0070C080F0810E0001716FFF0E726F7DC01C
:102B7E0073F07EC074F07FC075F080C076F0180ED2
:102B8E00CEEF15F0D8907633753374337333E82E59
:102B9E00C9EF15F0735171257B6F000E72217C6F9A
:102BAE007CBFE3EF15F07C5109E1170E7B5DD8A0D9
:102BBE00E3EF15F0E5EF15F0EFEF15F06DC06DF0EA
:102BCE006EC06EF06FC06FF070C070F0B3EF16F0A5
:102BDE007CBFF4EF15F0F6EF15F067EF16F07BC043
:102BEE0071F0FF0E726FFF0E736F7F0E746F000E1B
:102BFE00756F716705EF16F00DEF16F075357533BD
:102C0E00743373337233712F00EF16F072C077F096
:102C1E0073C078F074C079F075C07AF00001775106
:102C2E007D15716F78517E15726F79517F15736FA7
:102C3E007A518015746F7151721173117411D8A479
:102C4E002BEF16F02DEF16F02FEF16F0E5EF15F037
:102C5E007DC071F07EC072F07FC073F080C074F0E2
:102C6E00200E3FEF16F0D8907433733372337133F6
:102C7E00E82E3AEF16F07151721173117411D8B427
:102C8E004BEF16F04DEF16F055EF16F077517D27FE
:102C9E0078517E2379517F237A518023771D716F6E
:102CAE00781D726F791D736F7A1D746F71517D1758
:102CBE0072517E1773517F1774518017ABEF16F058
:102CCE007DC071F07EC072F07FC073F080C074F072
:102CDE00200E77EF16F0D89074337333723371334E
:102CEE00E82E72EF16F07151721173117411D8A48F
:102CFE0083EF16F085EF16F08FEF16F0000E7D6F56
:102D0E00000E7E6F000E7F6F000E806FABEF16F021
:102D1E00D8907D35716F7E35726F7F35736F8035CC
:102D2E00746F7151721173117411D8B4A1EF16F042
:102D3E00A3EF16F0ABEF16F0000E7D6F000E7E6F58
:102D4E00800E7F6FBF0E806F7DC06DF07EC06EF007
:102D5E007FC06FF080C070F012000600E1CF19F056
:102D6E00E2CF1AF0F6CF1BF0F7CF1CF0F8CF1DF024
:102D7E00F5CF1EF0F0A0C6EF16F0C8EF16F04DEF2F
:102D8E0017F0F09033C001F034C002F035C003F0FC
:102D9E0036C004F0000E056E000E066E480E076E6D
:102DAE00420E086EE4EC19F0D8A0E0EF16F0E2EF58
:102DBE0016F0FEEF16F033C011F034C012F035C02D
:102DCE0013F036C014F0000E156E000E166E800E47
:102DDE00176E3F0E186E5FEC20F011C033F012C06C
:102DEE0034F013C035F014C036F04DEF17F0000E6E
:102DFE00016E000E026EC80E036E410E046E33C0DD
:102E0E0005F034C006F035C007F036C008F0E4EC2B
:102E1E0019F0D8A015EF17F017EF17F033EF17F0E2
:102E2E0033C001F034C002F035C003F036C004F0F8
:102E3E00000E056E000E066E800E076E3F0E086EBB
:102E4E0065EC0FF001C033F002C034F003C035F072
:102E5E0004C036F04DEF17F033C011F034C012F04D
:102E6E0035C013F036C014F0000E156E000E166E3F
:102E7E00800E176E3F0E186E5FEC20F011C033F00F
:102E8E0012C034F013C035F014C036F0F2AA52EF6F
:102E9E0017F054EF17F07CEF17F0F2A459EF17F07C
:102EAE005BEF17F07CEF17F0E5EC1CF051EC1BF02C
:102EBE0033C001F034C002F035C003F036C004F068
:102ECE000A0E056ED70E066E230E076EBC0E086E2A
:102EDE0065EC0FF001C033F002C034F003C035F0E2
:102EEE0004C036F0050ED66EF2941EC0F5FF1DC05E
:102EFE00F8FF1CC0F7FF1BC0F6FF1AC0E2FF19C097
:102F0E00E1FF41921100000E00016C6F000E6B6F1D
:102F1E00000E656F000E646F97EF17F0264A272A92
:102F2E00010E6A6F26C0F6FF27C0F7FF0800F550A6
:102F3E00200AD8B4A5EF17F0A7EF17F0C4EF17F0DB
:102F4E00F70E606FFF0E616F26C0F6FF27C0F7FF0A
:102F5E000800F550626F636B605162276151632305
:102F6E00635109E1050E625DD8A0C0EF17F0C2EF04
:102F7E0017F0C4EF17F0000E6A6F6AC066F0676B49
:102F8E0066516711D8A4CEEF17F0D0EF17F095EF7A
:102F9E0017F0DAEF17F0000E656F010E646F264A18
:102FAE00272A10EF18F026C0F6FF27C0F7FF0800FB
:102FBE00F550606F616B6151000AD8B4E9EF17F0FC
:102FCE0010EF18F060512B0AD8B4D6EF17F0060A9E
:102FDE00D8B4D2EF17F010EF18F06BC01FF06CC022
:102FEE0020F0000E226E0A0E216ED6EC20F026C0C6
:102FFE00F6FF27C0F7FF0800F5501F5E000E205A9F
:10300E00300E1F2400016B6F000E20206C6FD6EF68
:10301E0017F0D00E606FFF0E616F26C0F6FF27C04F
:10302E00F7FF0800F550626F636B605162276151C4
:10303E00632363510AE10A0E625DD8A029EF18F0EE
:10304E002CEF18F0010E2DEF18F0000E686F696B63
:10305E0068516911D8A436EF18F038EF18F0F4EF74
:10306E0017F064516511D8A43FEF18F041EF18F036
:10307E004FEF18F06BC060F06CC061F0601F611F05
:10308E00604B612B60C026F061C027F053EF18F043
:10309E006BC026F06CC027F012008098F28EF28A78
:1030AE00C70ED56E050ED66E000E956E000E966E80
:1030BE000F0EC16EF086F090F18A000E206E3C0E5F
:1030CE001F6EE9EC20F0000E206E0C0E1F6EE9EC68
:1030DE0020F01DEC21F0000E206E800E1F6EE9EC2C
:1030EE0020F0010E236E080E246E30EC1EF0000E42
:1030FE00336E000E346E200E356E420E366ED2EFEB
:10310E0018F0FD07D8A0FE071DEC21F0060E0001F9
:10311E00EE6F130EED6FAD0EE82EFED7ED2FFCD732
:10312E00EE2FFAD700D0000E206E800E1F6EE9EC47
:10313E0020F0060E236E080E246E30EC1EF0000EEC
:10314E00206EC00E1F6EE9EC20F0F50E0001E56F4B
:10315E00000EE66F230EE76F080EE86F33C0E9F03E
:10316E0034C0EAF035C0EBF036C0ECF074EC1FF072
:10317E00F50E236E000E246E30EC1EF0060E0001CE
:10318E00EE6F130EED6FAD0EE82EFED7ED2FFCD7C2
:10319E00EE2FFAD700D00001FD51FE11D8A4DAEFC0
:1031AE0018F0DCEF18F088EF18F007EF00F021347C
:1031BE002234286E2850D8A4E7EF18F0E9EF18F063
:1031CE00F3EF18F0000E1F6E000E206E000E216E33
:1031DE00000E226E60EF19F01FC023F020C024F005
:1031EE0021C025F022C026F0200E03EF19F0D89052
:1031FE002632253224322332E82EFEEF18F02350E9
:10320E00276E218EFF0E1F16FF0E2016FF0E2116A3
:10321E00000E2216960E285E28BE1AEF19F018EF31
:10322E0019F030EF19F02850800A970FD8B022EF1E
:10323E0019F024EF19F026EF19F0E9EF18F0D890F5
:10324E002232213220321F32283E26EF19F048EF6B
:10325E0019F01F0E286436EF19F038EF19F040EF11
:10326E0019F0E9EF18F0D8901F36203621362236A5
:10327E0028062850D8A446EF19F048EF19F03AEF77
:10328E0019F02750D8B44EEF19F050EF19F058EF4F
:10329E0019F0221E211E201E1F6C000E202221223C
:1032AE0022221FC01FF020C020F021C021F022C01A
:1032BE0022F01200000E00016D15756F000E6E15D6
:1032CE00766F800E6F15776F7F0E7015786F755154
:1032DE00761177117811D8A477EF19F079EF19F0EC
:1032EE0081EF19F0000E6D6F000E6E6F000E6F6F96
:1032FE00000E706F000E7115756F000E7215766FE1
:10330E00800E7315776F7F0E7415786F7551761169
:10331E0077117811D8A496EF19F098EF19F0A0EF65
:10332E0019F0000E716F000E726F000E736F000EAB
:10333E00746F70AFA5EF19F0A7EF19F0B0EF19F099
:10334E006D6D6E1FD8B06E2B6F1FD8B06F2B800EA9
:10335E00705774AFB5EF19F0B7EF19F0C0EF19F061
:10336E00716D721FD8B0722B731FD8B0732B800E75
:10337E007457000E6D1B000E6E1B000E6F1B800E21
:10338E00701B000E711B000E721B000E731B800E45
:10339E00741B71516D5D72516E5973516F59745129
:1033AE007059D8B0DDEF19F0DFEF19F0E2EF19F038
:1033BE00D890E3EF19F0D8801200000E0114096EB8
:1033CE00000E02140A6E800E03140B6E7F0E041490
:1033DE000C6E09500A100B100C10D8A4F9EF19F04E
:1033EE00FBEF19F003EF1AF0000E016E000E026EE5
:1033FE00000E036E000E046E000E0514096E000E14
:10340E0006140A6E800E07140B6E7F0E08140C6ED7
:10341E0009500A100B100C10D8A418EF1AF01AEF5E
:10342E001AF022EF1AF0000E056E000E066E000E58
:10343E00076E000E086E04AE27EF1AF029EF1AF091
:10344E0032EF1AF0016C021ED8B0022A031ED8B059
:10345E00032A800E045608AE37EF1AF039EF1AF031
:10346E0042EF1AF0056C061ED8B0062A071ED8B019
:10347E00072A800E0856000E011A000E021A000EC0
:10348E00031A800E041A000E051A000E061A000EFC
:10349E00071A800E081A0550015C06500258075094
:1034AE00035808500458D8B05FEF1AF061EF1AF0C5
:1034BE0064EF1AF0D89065EF1AF0D88012002FC082
:1034CE0062F030C063F031C064F032C065F01FC0EE
:1034DE0062F020C063F021C064F022C065F062C0CB
:1034EE0023F063C024F064C025F065C026F0180EEA
:1034FE0086EF1AF0D8902632253224322332E82E67
:10350E0081EF1AF023500001606F616B6051611101
:10351E00D8A494EF1AF096EF1AF0B6EF1AF0D890EE
:10352E006235236E6335246E6435256E6535266EE1
:10353E002350241025102610D8A4A8EF1AF0AAEFB5
:10354E001AF0B0EF1AF0000E206E020E1F6EE5EFAD
:10355E001AF0000E206E030E1F6EE5EF1AF06029B2
:10356E006111D8A4BDEF1AF0BFEF1AF0E1EF1AF017
:10357E0062C023F063C024F064C025F065C026F05D
:10358E00090ED8902336243625362636E82EC8EF77
:10359E001AF02350241025102610D8B4D9EF1AF0A3
:1035AE00DCEF1AF0010EDDEF1AF0000E1F6E206A2E
:1035BE00E5EF1AF0000E206E040E1F6E12001FC0F3
:1035CE0026F020C027F021C028F022C029F02306C3
:1035DE00D8A02406232806E12428D8A4F9EF1AF04F
:1035EE00FBEF1AF008EF1BF0000E206E000E1F6EA0
:1035FE0050EF1BF0264A272A284A292A2306D8A04C
:10360E00240626C0D9FF27C0DAFFDF50D8B412EF48
:10361E001BF014EF1BF03FEF1BF028C0F6FF29C084
:10362E00F7FF0800F5500009D8B420EF1BF022EF89
:10363E001BF03FEF1BF023502410D8B429EF1BF0E2
:10364E002BEF1BF03FEF1BF026C0D9FF27C0DAFF90
:10365E00DF50256E28C0F6FF29C0F7FF0800F55091
:10366E002518D8B43DEF1BF03FEF1BF001EF1BF018
:10367E0026C0D9FF27C0DAFFDF50256E28C0F6FF1F
:10368E0029C0F7FF0800F550255C1F6E206AD8A0F0
:10369E002006120033C001F034C002F035C003F032
:1036AE0036C004F0000E056E000E066E480E076E54
:1036BE00420E086EE4EC19F0D8A068EF1BF06AEF2A
:1036CE001BF086EF1BF033C011F034C012F035C082
:1036DE0013F036C014F0000E156E000E166E800E2E
:1036EE00176E3F0E186E5FEC20F011C033F012C053
:1036FE0034F013C035F014C036F0B9EF1BF0000EE5
:10370E00016E000E026EC80E036E410E046E33C0C3
:10371E0005F034C006F035C007F036C008F0E4EC12
:10372E0019F0D8A09DEF1BF09FEF1BF0B9EF1BF027
:10373E0033C001F034C002F035C003F036C004F0DF
:10374E00000E056E000E066E800E076E3F0E086EA2
:10375E0065EC0FF001C033F002C034F003C035F059
:10376E0004C036F0120021502210D8B4C1EF1BF065
:10377E00C3EF1BF0CCEF1BF021502210D8A4CAEFE0
:10378E001BF0CCEF1BF0D1EF1BF01F5030EC21F0F3
:10379E001EEF1CF020EE04F02150D9262250DA2222
:1037AE00DE50DE10D8B4DEEF1BF0E0EF1BF0FBEFC7
:1037BE001BF020EE04F02150D9262250DA2210EE12
:1037CE0002F02150E1262250E222DE50E65CE65065
:1037DE00800A276EDE50800A2758D8B0F9EF1BF00A
:1037EE00FBEF1BF01EEF1CF020EE02F02150D9264D
:1037FE002250DA22DECF23F0DDCF24F021C0D9FF14
:10380E0022C0DAFFDECF25F0DDCF26F023502524AF
:10381E00D96E24502620DA6E1FC0DFFF20EE02F094
:10382E002150D9262250DA22DE2A000EDD22120085
:10383E0037A024EF1CF026EF1CF030EF1CF066C012
:10384E0060F067C061F064C062F065C063F03CEC8C
:10385E0020F0000169BF36EF1CF038EF1CF03EEF90
:10386E001CF068C06DF069C06EF042EF1CF0000EE7
:10387E006E6F000E6D6F000E6C6F000E6B6F55EF5E
:10388E001CF0000E206E200E1F6E64C021F065C06D
:10389E0022F0BAEC1BF000016B4B6C2B6D516B5D83
:1038AE006C51800A6A6F6E51800A6A59D8A062EF15
:1038BE001CF064EF1CF048EF1CF037B069EF1CF001
:1038CE006BEF1CF075EF1CF066C060F067C061F026
:1038DE0064C062F065C063F03CEC20F066C01FF07F
:1038EE0067C020F0CAEC1FF000016D511F24646FF9
:1038FE006E512020656F1200000E246E22BE8CEFDA
:10390E001CF08AEF1CF092EF1CF0216C221ED8B036
:10391E00222A010E246E20BE99EF1CF097EF1CF0A8
:10392E009FEF1CF01F6C201ED8B0202A010E241A07
:10393E00000E266E000E256E21502210D8B4AAEF6E
:10394E001CF0ACEF1CF0D4EF1CF0010E236EB4EFA4
:10395E001CF0D89021362236232A22AEB9EF1CF065
:10396E00BBEF1CF0B0EF1CF0D89025362636215058
:10397E001F5C22502058D8A0C7EF1CF0C9EF1CF0D6
:10398E00CEEF1CF021501F5E2250205A2580D89079
:10399E0022322132232EBBEF1CF02450D8B4DAEFA2
:1039AE001CF0DCEF1CF0E0EF1CF0256C261ED8B0EE
:1039BE00262A25C01FF026C020F012003DC001F0BF
:1039CE003EC002F03FC003F040C004F033C005F02B
:1039DE0034C006F035C007F036C008F0E4EC19F03C
:1039EE00D8A0FCEF1CF0FEEF1CF017EF1DF033C05B
:1039FE0001F034C002F035C003F036C004F039C017
:103A0E0005F03AC006F03BC007F03CC008F0E4EC0D
:103A1E0019F0D8B015EF1DF017EF1DF03FEF1DF0A8
:103A2E0024EC21F0060E0F6E130E0E6EAE0EE82E67
:103A3E00FED70E2EFCD70F2EFAD7000E026E800E7A
:103A4E00016E03EC21F0120E056E080E066E71EC7F
:103A5E001EF0060E0F6E130E0E6EAE0EE82EFED775
:103A6E000E2EFCD70F2EFAD724EC21F0EDEC1DF024
:103A7E001200000E246E20BE49EF1DF047EF1DF020
:103A8E004FEF1DF01F6C201ED8B0202A010E246EA1
:103A9E0022BE56EF1DF054EF1DF05AEF1DF0216CB3
:103AAE00221ED8B0222A21502210D8B461EF1DF068
:103ABE0063EF1DF087EF1DF0010E236E6BEF1DF00F
:103ACE00D89021362236232A22AE70EF1DF072EFE7
:103ADE001DF067EF1DF021501F5C22502058D8A01A
:103AEE007BEF1DF07DEF1DF081EF1DF021501F5E6D
:103AFE002250205AD89022322132232E72EF1DF0FE
:103B0E002450D8B48DEF1DF08FEF1DF093EF1DF004
:103B1E001F6C201ED8B0202A1FC01FF020C020F01E
:103B2E001200000E1F14276E000E2014286E800E39
:103B3E002114296E7F0E22142A6E27502810291068
:103B4E002A10D8A4ADEF1DF0AFEF1DF0B7EF1DF0AA
:103B5E00000E1F6E000E206E000E216E000E226EE5
:103B6E00000E2314276E000E2414286E800E2514CA
:103B7E00296E7F0E26142A6E2750281029102A101F
:103B8E00D8A4CCEF1DF0CEEF1DF0D6EF1DF0000E39
:103B9E00236E000E246E000E256E000E266E235030
:103BAE001F180FE1245020180CE12550211809E1AF
:103BBE0026502218D8B4E6EF1DF0E8EF1DF0EBEF1B
:103BCE001DF0D890ECEF1DF0D8801200000E016EA3
:103BDE00000E026ED00E036E410E046E33C005F061
:103BEE0034C006F035C007F036C008F0E4EC19F02A
:103BFE00D8A004EF1EF006EF1EF00EEF1EF0000E22
:103C0E00336E000E346EF00E356E410E366E33C0CE
:103C1E0001F034C002F035C003F036C004F0000EDF
:103C2E00056E000E066E480E076E420E086EE4EC30
:103C3E0019F0D8A025EF1EF027EF1EF02FEF1EF083
:103C4E00000E336E000E346E200E356E420E366E42
:103C5E001200000E0001636F000E626F23C01FF092
:103C6E0024C020F0CAEC1FF01FC060F020C061F02D
:103C7E0060EF1EF062512324256E63512420266EC0
:103C8E0025C0F6FF26C0F7FFF86A070EF76403D0CB
:103C9E000800F55005D0F6CFE1FFF7CFE2FFE75071
:103CAE00276E27501F6E206AF6EC20F00001624B43
:103CBE00632B00016051625D6351800A256E615174
:103CCE00800A2558D8A06EEF1EF070EF1EF041EF5F
:103CDE001EF01200000E0D6E000E0C6E05C001F0EF
:103CEE0006C002F0F1EC1FF001C00AF002C00BF0AA
:103CFE009FEF1EF00C500524076E0D500620086E27
:103D0E0007C0F6FF08C0F7FFF86A070EF76403D086
:103D1E000800F55005D0F6CFE1FFF7CFE2FFE750F0
:103D2E00096E0950016E026A10EC21F00C4A0D2A40
:103D3E000A500C5C0D50800A076E0B50800A075813
:103D4E00D8A0ACEF1EF0AEEF1EF081EF1EF0120009
:103D5E005E0EF66E420EF76E000EF86E0900F5CF8F
:103D6E00FDF00900F5CFFEF0560EF66E420EF76E20
:103D7E00000EF86E00EE39F010EE08F00900F5CFE7
:103D8E00EEFFE550E150FAE101EE00F0500EEE6A62
:103D9E00E806FDE100EEEFF00E0EEE6AE806FDE13C
:103DAE0000EE2BF00E0EEE6AE806FDE14190419218
:103DBE00000EF86E000154EF18F0DFC0E3F0E0C023
:103DCE00E4F0000E0001F06F000EEF6F02EF1FF037
:103DDE00DDC0C5F0DEC0C6F0E30EC76F000EC86FC3
:103DEE00E1C0C9F0E2C0CAF04EEC0AF00001C551C4
:103DFE00EF27C651F023E3C0F6FFE4C0F7FF08003B
:103E0E00F5500009D8A40EEF1FF010EF1FF0EFEFE2
:103E1E001EF0EFC0DDF0F0C0DEF01200BF0E276E18
:103E2E00FF0E286E25C029F026C02AF0275029261D
:103E3E0028502A222A500AE11A0E295CD8A02AEF0D
:103E4E001FF02DEF1FF0010E2EEF1FF0000E0001E0
:103E5E00606F616B60516111D8B438EF1FF03AEFAB
:103E6E001FF041EF1FF0200E2510256E2650266EF6
:103E7E0045EF1FF025C025F026C026F0120021C008
:103E8E0025F022C026F01FC027F020C028F02550B4
:103E9E00236E2650246E254A262A23C0F6FF24C000
:103EAE00F7FFF86A27C0D9FF28C0DAFF274A282A69
:103EBE00070EF76403D00800F55005D0F6CFE1FFEA
:103ECE00F7CFE2FFE750DF6EDF50D8A471EF1FF09F
:103EDE0073EF1FF04EEF1FF01200E90E0101506F4D
:103EEE00000E516FE5C052F1E6C053F1000E556F52
:103EFE00000E546F000E576F000E566F520E0001DB
:103F0E00DD6F010EDE6FE7C0DFF0E8C0E0F0500EAF
:103F1E00E16F010EE26FE4EC1EF00101545100015D
:103F2E00E525D96E010155510001E621DA6E000E2C
:103F3E00DF6E1200010E256E200E1F182010D8B451
:103F4E00ABEF1FF0ADEF1FF0C6EF1FF0F70E216EB7
:103F5E00FF0E226E1FC023F020C024F02150232616
:103F6E0022502422245009E1050E235CD8A0C2EF72
:103F7E001FF0C4EF1FF0C6EF1FF0000E256E25C018
:103F8E001FF0206A12001FC021F020C022F0D2EFD5
:103F9E001FF01F4A202A1FC0F6FF20C0F7FFF86A45
:103FAE00070EF76403D00800F55005D0F6CFE1FFF9
:103FBE00F7CFE2FFE7500009D8A4E8EF1FF0EAEFD1
:103FCE001FF0D0EF1FF021501F5C1F6E22502058A3
:103FDE00206E120001C003F002C004F0F9EF1FF0D2
:103FEE00014A022A01C0F6FF02C0F7FFF86A070E67
:103FFE00F76403D00800F55005D0F6CFE1FFF7CFF8
:10400E00E2FFE7500009D8A40FEF20F011EF20F0E7
:10401E00F7EF1FF00350015C016E04500258026E60
:10402E001200000E0001711B000E721B000E731B9E
:10403E00800E741B6DC01FF06EC020F06FC021F09B
:10404E0070C022F071C023F072C024F073C025F04E
:10405E0074C026F004EC0DF01FC06DF020C06EF0A1
:10406E0021C06FF022C070F01200000E2A6E000EFA
:10407E00296E4DEF20F028C01FF0206A62C021F09B
:10408E0063C022F0BAEC1BF0294A2A2A29500001FB
:10409E006025D96E2A506121DA6EDF50286E2850C5
:1040AE00D8A45CEF20F05EEF20F042EF20F012007B
:1040BE00000E151A000E161A000E171A800E181A78
:1040CE0011C001F012C002F013C003F014C004F0CE
:1040DE0015C005F016C006F017C007F018C008F09E
:1040EE0065EC0FF001C011F002C012F003C013F026
:1040FE0004C014F01200BF0E216EFF0E226E1FC000
:10410E0023F020C024F021502326225024222450B4
:10411E000AE11A0E235CD8A097EF20F09AEF20F058
:10412E00010E9BEF20F0000E1F6E206A12001F5032
:10413E00201021102210D8B4A7EF20F0A9EF20F004
:10414E00B1EF20F0000E1F1A000E201A000E211AD9
:10415E00800E221A1FC01FF020C020F021C021F0B7
:10416E0022C022F01200D00E216EFF0E226E1FC052
:10417E0023F020C024F02150232622502422245044
:10418E000AE10A0E235CD8A0CFEF20F0D2EF20F088
:10419E00010ED3EF20F0000E1F6E206A12001F508A
:1041AE002102F3CF23F0F4CF24F01F502202F3505C
:1041BE00242620502102F350242623C01FF024C0B1
:1041CE0020F01200849484821FC083FF030E216EA0
:1041DE00980EE82EFED7212EFCD7849212008484EE
:1041EE0084821FC083FF030E216E980EE82EFED729
:1041FE00212EFCD7849212008494848201C083FF06
:10420E00030E036E980EE82EFED7032EFCD7849273
:10421E0012008484848201C083FF030E036E980E05
:10422E00E82EFED7032EFCD784921200000E206ECD
:10423E00010E1F6EE9EC20F01200000E026E010E50
:10424E00016E03EC21F012000000C841000048424C
:04425E000A00120040
:020000040020DA
:08000000FFFFFFFFFFFFFFFF00
:020000040030CA
:0E000000000C1F1EFF8385FF0FC00FE00F4096
:00000001FF
